{
  "_format": "hh-sol-artifact-1",
  "contractName": "FunditToken",
  "sourceName": "contracts/FunditToken.sol",
  "abi": [
    {
      "inputs": [],
      "stateMutability": "nonpayable",
      "type": "constructor"
    },
    {
      "inputs": [
        {
          "internalType": "address",
          "name": "spender",
          "type": "address"
        },
        {
          "internalType": "uint256",
          "name": "allowance",
          "type": "uint256"
        },
        {
          "internalType": "uint256",
          "name": "needed",
          "type": "uint256"
        }
      ],
      "name": "ERC20InsufficientAllowance",
      "type": "error"
    },
    {
      "inputs": [
        {
          "internalType": "address",
          "name": "sender",
          "type": "address"
        },
        {
          "internalType": "uint256",
          "name": "balance",
          "type": "uint256"
        },
        {
          "internalType": "uint256",
          "name": "needed",
          "type": "uint256"
        }
      ],
      "name": "ERC20InsufficientBalance",
      "type": "error"
    },
    {
      "inputs": [
        {
          "internalType": "address",
          "name": "approver",
          "type": "address"
        }
      ],
      "name": "ERC20InvalidApprover",
      "type": "error"
    },
    {
      "inputs": [
        {
          "internalType": "address",
          "name": "receiver",
          "type": "address"
        }
      ],
      "name": "ERC20InvalidReceiver",
      "type": "error"
    },
    {
      "inputs": [
        {
          "internalType": "address",
          "name": "sender",
          "type": "address"
        }
      ],
      "name": "ERC20InvalidSender",
      "type": "error"
    },
    {
      "inputs": [
        {
          "internalType": "address",
          "name": "spender",
          "type": "address"
        }
      ],
      "name": "ERC20InvalidSpender",
      "type": "error"
    },
    {
      "inputs": [
        {
          "internalType": "address",
          "name": "owner",
          "type": "address"
        }
      ],
      "name": "OwnableInvalidOwner",
      "type": "error"
    },
    {
      "inputs": [
        {
          "internalType": "address",
          "name": "account",
          "type": "address"
        }
      ],
      "name": "OwnableUnauthorizedAccount",
      "type": "error"
    },
    {
      "anonymous": false,
      "inputs": [
        {
          "indexed": true,
          "internalType": "address",
          "name": "owner",
          "type": "address"
        },
        {
          "indexed": true,
          "internalType": "address",
          "name": "spender",
          "type": "address"
        },
        {
          "indexed": false,
          "internalType": "uint256",
          "name": "value",
          "type": "uint256"
        }
      ],
      "name": "Approval",
      "type": "event"
    },
    {
      "anonymous": false,
      "inputs": [
        {
          "indexed": true,
          "internalType": "address",
          "name": "oldMinter",
          "type": "address"
        },
        {
          "indexed": true,
          "internalType": "address",
          "name": "newMinter",
          "type": "address"
        }
      ],
      "name": "MinterUpdated",
      "type": "event"
    },
    {
      "anonymous": false,
      "inputs": [
        {
          "indexed": true,
          "internalType": "address",
          "name": "previousOwner",
          "type": "address"
        },
        {
          "indexed": true,
          "internalType": "address",
          "name": "newOwner",
          "type": "address"
        }
      ],
      "name": "OwnershipTransferred",
      "type": "event"
    },
    {
      "anonymous": false,
      "inputs": [
        {
          "indexed": true,
          "internalType": "address",
          "name": "from",
          "type": "address"
        },
        {
          "indexed": true,
          "internalType": "address",
          "name": "to",
          "type": "address"
        },
        {
          "indexed": false,
          "internalType": "uint256",
          "name": "value",
          "type": "uint256"
        }
      ],
      "name": "Transfer",
      "type": "event"
    },
    {
      "inputs": [
        {
          "internalType": "address",
          "name": "owner",
          "type": "address"
        },
        {
          "internalType": "address",
          "name": "spender",
          "type": "address"
        }
      ],
      "name": "allowance",
      "outputs": [
        {
          "internalType": "uint256",
          "name": "",
          "type": "uint256"
        }
      ],
      "stateMutability": "view",
      "type": "function"
    },
    {
      "inputs": [
        {
          "internalType": "address",
          "name": "spender",
          "type": "address"
        },
        {
          "internalType": "uint256",
          "name": "value",
          "type": "uint256"
        }
      ],
      "name": "approve",
      "outputs": [
        {
          "internalType": "bool",
          "name": "",
          "type": "bool"
        }
      ],
      "stateMutability": "nonpayable",
      "type": "function"
    },
    {
      "inputs": [
        {
          "internalType": "address",
          "name": "account",
          "type": "address"
        }
      ],
      "name": "balanceOf",
      "outputs": [
        {
          "internalType": "uint256",
          "name": "",
          "type": "uint256"
        }
      ],
      "stateMutability": "view",
      "type": "function"
    },
    {
      "inputs": [],
      "name": "decimals",
      "outputs": [
        {
          "internalType": "uint8",
          "name": "",
          "type": "uint8"
        }
      ],
      "stateMutability": "view",
      "type": "function"
    },
    {
      "inputs": [
        {
          "internalType": "address",
          "name": "user",
          "type": "address"
        },
        {
          "internalType": "uint256",
          "name": "index",
          "type": "uint256"
        }
      ],
      "name": "getRewardHistoryItem",
      "outputs": [
        {
          "internalType": "uint256",
          "name": "amount",
          "type": "uint256"
        },
        {
          "internalType": "uint256",
          "name": "timestamp",
          "type": "uint256"
        }
      ],
      "stateMutability": "view",
      "type": "function"
    },
    {
      "inputs": [
        {
          "internalType": "address",
          "name": "user",
          "type": "address"
        }
      ],
      "name": "getRewardHistoryLength",
      "outputs": [
        {
          "internalType": "uint256",
          "name": "",
          "type": "uint256"
        }
      ],
      "stateMutability": "view",
      "type": "function"
    },
    {
      "inputs": [
        {
          "internalType": "address",
          "name": "to",
          "type": "address"
        },
        {
          "internalType": "uint256",
          "name": "amount",
          "type": "uint256"
        }
      ],
      "name": "mintReward",
      "outputs": [],
      "stateMutability": "nonpayable",
      "type": "function"
    },
    {
      "inputs": [],
      "name": "minter",
      "outputs": [
        {
          "internalType": "address",
          "name": "",
          "type": "address"
        }
      ],
      "stateMutability": "view",
      "type": "function"
    },
    {
      "inputs": [],
      "name": "name",
      "outputs": [
        {
          "internalType": "string",
          "name": "",
          "type": "string"
        }
      ],
      "stateMutability": "view",
      "type": "function"
    },
    {
      "inputs": [],
      "name": "owner",
      "outputs": [
        {
          "internalType": "address",
          "name": "",
          "type": "address"
        }
      ],
      "stateMutability": "view",
      "type": "function"
    },
    {
      "inputs": [],
      "name": "renounceOwnership",
      "outputs": [],
      "stateMutability": "nonpayable",
      "type": "function"
    },
    {
      "inputs": [
        {
          "internalType": "address",
          "name": "",
          "type": "address"
        },
        {
          "internalType": "uint256",
          "name": "",
          "type": "uint256"
        }
      ],
      "name": "rewardHistory",
      "outputs": [
        {
          "internalType": "uint256",
          "name": "amount",
          "type": "uint256"
        },
        {
          "internalType": "uint256",
          "name": "timestamp",
          "type": "uint256"
        }
      ],
      "stateMutability": "view",
      "type": "function"
    },
    {
      "inputs": [
        {
          "internalType": "address",
          "name": "_minter",
          "type": "address"
        }
      ],
      "name": "setMinter",
      "outputs": [],
      "stateMutability": "nonpayable",
      "type": "function"
    },
    {
      "inputs": [],
      "name": "symbol",
      "outputs": [
        {
          "internalType": "string",
          "name": "",
          "type": "string"
        }
      ],
      "stateMutability": "view",
      "type": "function"
    },
    {
      "inputs": [],
      "name": "totalSupply",
      "outputs": [
        {
          "internalType": "uint256",
          "name": "",
          "type": "uint256"
        }
      ],
      "stateMutability": "view",
      "type": "function"
    },
    {
      "inputs": [
        {
          "internalType": "address",
          "name": "to",
          "type": "address"
        },
        {
          "internalType": "uint256",
          "name": "value",
          "type": "uint256"
        }
      ],
      "name": "transfer",
      "outputs": [
        {
          "internalType": "bool",
          "name": "",
          "type": "bool"
        }
      ],
      "stateMutability": "nonpayable",
      "type": "function"
    },
    {
      "inputs": [
        {
          "internalType": "address",
          "name": "from",
          "type": "address"
        },
        {
          "internalType": "address",
          "name": "to",
          "type": "address"
        },
        {
          "internalType": "uint256",
          "name": "value",
          "type": "uint256"
        }
      ],
      "name": "transferFrom",
      "outputs": [
        {
          "internalType": "bool",
          "name": "",
          "type": "bool"
        }
      ],
      "stateMutability": "nonpayable",
      "type": "function"
    },
    {
      "inputs": [
        {
          "internalType": "address",
          "name": "newOwner",
          "type": "address"
        }
      ],
      "name": "transferOwnership",
      "outputs": [],
      "stateMutability": "nonpayable",
      "type": "function"
    }
  ],
  "bytecode": "0x608060405234801561001057600080fd5b50336040518060400160405280600c81526020017f46756e64697420546f6b656e00000000000000000000000000000000000000008152506040518060400160405280600381526020017f4644540000000000000000000000000000000000000000000000000000000000815250816003908161008d919061072a565b50806004908161009d919061072a565b505050600073ffffffffffffffffffffffffffffffffffffffff168173ffffffffffffffffffffffffffffffffffffffff16036101125760006040517f1e4fbdf7000000000000000000000000000000000000000000000000000000008152600401610109919061083d565b60405180910390fd5b6101218161015e60201b60201c565b506101593361013461022460201b60201c565b600a61014091906109c7565b620f424061014e9190610a12565b61022d60201b60201c565b610ae9565b6000600560009054906101000a900473ffffffffffffffffffffffffffffffffffffffff16905081600560006101000a81548173ffffffffffffffffffffffffffffffffffffffff021916908373ffffffffffffffffffffffffffffffffffffffff1602179055508173ffffffffffffffffffffffffffffffffffffffff168173ffffffffffffffffffffffffffffffffffffffff167f8be0079c531659141344cd1fd0a4f28419497f9722a3daafe3b4186f6b6457e060405160405180910390a35050565b60006012905090565b600073ffffffffffffffffffffffffffffffffffffffff168273ffffffffffffffffffffffffffffffffffffffff160361029f5760006040517fec442f05000000000000000000000000000000000000000000000000000000008152600401610296919061083d565b60405180910390fd5b6102b1600083836102b560201b60201c565b5050565b600073ffffffffffffffffffffffffffffffffffffffff168373ffffffffffffffffffffffffffffffffffffffff16036103075780600260008282546102fb9190610a54565b925050819055506103da565b60008060008573ffffffffffffffffffffffffffffffffffffffff1673ffffffffffffffffffffffffffffffffffffffff16815260200190815260200160002054905081811015610393578381836040517fe450d38c00000000000000000000000000000000000000000000000000000000815260040161038a93929190610a97565b60405180910390fd5b8181036000808673ffffffffffffffffffffffffffffffffffffffff1673ffffffffffffffffffffffffffffffffffffffff16815260200190815260200160002081905550505b600073ffffffffffffffffffffffffffffffffffffffff168273ffffffffffffffffffffffffffffffffffffffff16036104235780600260008282540392505081905550610470565b806000808473ffffffffffffffffffffffffffffffffffffffff1673ffffffffffffffffffffffffffffffffffffffff168152602001908152602001600020600082825401925050819055505b8173ffffffffffffffffffffffffffffffffffffffff168373ffffffffffffffffffffffffffffffffffffffff167fddf252ad1be2c89b69c2b068fc378daa952ba7f163c4a11628f55a4df523b3ef836040516104cd9190610ace565b60405180910390a3505050565b600081519050919050565b7f4e487b7100000000000000000000000000000000000000000000000000000000600052604160045260246000fd5b7f4e487b7100000000000000000000000000000000000000000000000000000000600052602260045260246000fd5b6000600282049050600182168061055b57607f821691505b60208210810361056e5761056d610514565b5b50919050565b60008190508160005260206000209050919050565b60006020601f8301049050919050565b600082821b905092915050565b6000600883026105d67fffffffffffffffffffffffffffffffffffffffffffffffffffffffffffffffff82610599565b6105e08683610599565b95508019841693508086168417925050509392505050565b6000819050919050565b6000819050919050565b600061062761062261061d846105f8565b610602565b6105f8565b9050919050565b6000819050919050565b6106418361060c565b61065561064d8261062e565b8484546105a6565b825550505050565b600090565b61066a61065d565b610675818484610638565b505050565b5b818110156106995761068e600082610662565b60018101905061067b565b5050565b601f8211156106de576106af81610574565b6106b884610589565b810160208510156106c7578190505b6106db6106d385610589565b83018261067a565b50505b505050565b600082821c905092915050565b6000610701600019846008026106e3565b1980831691505092915050565b600061071a83836106f0565b9150826002028217905092915050565b610733826104da565b67ffffffffffffffff81111561074c5761074b6104e5565b5b6107568254610543565b61076182828561069d565b600060209050601f8311600181146107945760008415610782578287015190505b61078c858261070e565b8655506107f4565b601f1984166107a286610574565b60005b828110156107ca578489015182556001820191506020850194506020810190506107a5565b868310156107e757848901516107e3601f8916826106f0565b8355505b6001600288020188555050505b505050505050565b600073ffffffffffffffffffffffffffffffffffffffff82169050919050565b6000610827826107fc565b9050919050565b6108378161081c565b82525050565b6000602082019050610852600083018461082e565b92915050565b7f4e487b7100000000000000000000000000000000000000000000000000000000600052601160045260246000fd5b60008160011c9050919050565b6000808291508390505b60018511156108de578086048111156108ba576108b9610858565b5b60018516156108c95780820291505b80810290506108d785610887565b945061089e565b94509492505050565b6000826108f757600190506109b3565b8161090557600090506109b3565b816001811461091b576002811461092557610954565b60019150506109b3565b60ff84111561093757610936610858565b5b8360020a91508482111561094e5761094d610858565b5b506109b3565b5060208310610133831016604e8410600b84101617156109895782820a90508381111561098457610983610858565b5b6109b3565b6109968484846001610894565b925090508184048111156109ad576109ac610858565b5b81810290505b9392505050565b600060ff82169050919050565b60006109d2826105f8565b91506109dd836109ba565b9250610a0a7fffffffffffffffffffffffffffffffffffffffffffffffffffffffffffffffff84846108e7565b905092915050565b6000610a1d826105f8565b9150610a28836105f8565b9250828202610a36816105f8565b91508282048414831517610a4d57610a4c610858565b5b5092915050565b6000610a5f826105f8565b9150610a6a836105f8565b9250828201905080821115610a8257610a81610858565b5b92915050565b610a91816105f8565b82525050565b6000606082019050610aac600083018661082e565b610ab96020830185610a88565b610ac66040830184610a88565b949350505050565b6000602082019050610ae36000830184610a88565b92915050565b6116a380610af86000396000f3fe608060405234801561001057600080fd5b50600436106101165760003560e01c8063715018a6116100a2578063a9059cbb11610071578063a9059cbb146102e7578063dd62ed3e14610317578063f2fde38b14610347578063fca3b5aa14610363578063fe5b528e1461037f57610116565b8063715018a6146102855780638da5cb5b1461028f57806395d89b41146102ad5780639a49090e146102cb57610116565b806318160ddd116100e957806318160ddd146101b857806322523a94146101d657806323b872dd14610207578063313ce5671461023757806370a082311461025557610116565b806306fdde031461011b5780630754617214610139578063095ea7b31461015757806309a5ef7814610187575b600080fd5b6101236103af565b6040516101309190611233565b60405180910390f35b610141610441565b60405161014e9190611296565b60405180910390f35b610171600480360381019061016c9190611318565b610467565b60405161017e9190611373565b60405180910390f35b6101a1600480360381019061019c9190611318565b61048a565b6040516101af92919061139d565b60405180910390f35b6101c0610525565b6040516101cd91906113c6565b60405180910390f35b6101f060048036038101906101eb9190611318565b61052f565b6040516101fe92919061139d565b60405180910390f35b610221600480360381019061021c91906113e1565b610570565b60405161022e9190611373565b60405180910390f35b61023f61059f565b60405161024c9190611450565b60405180910390f35b61026f600480360381019061026a919061146b565b6105a8565b60405161027c91906113c6565b60405180910390f35b61028d6105f0565b005b610297610604565b6040516102a49190611296565b60405180910390f35b6102b561062e565b6040516102c29190611233565b60405180910390f35b6102e560048036038101906102e09190611318565b6106c0565b005b61030160048036038101906102fc9190611318565b6107f1565b60405161030e9190611373565b60405180910390f35b610331600480360381019061032c9190611498565b610814565b60405161033e91906113c6565b60405180910390f35b610361600480360381019061035c919061146b565b61089b565b005b61037d6004803603810190610378919061146b565b610921565b005b6103996004803603810190610394919061146b565b6109e9565b6040516103a691906113c6565b60405180910390f35b6060600380546103be90611507565b80601f01602080910402602001604051908101604052809291908181526020018280546103ea90611507565b80156104375780601f1061040c57610100808354040283529160200191610437565b820191906000526020600020905b81548152906001019060200180831161041a57829003601f168201915b5050505050905090565b600660009054906101000a900473ffffffffffffffffffffffffffffffffffffffff1681565b600080610472610a35565b905061047f818585610a3d565b600191505092915050565b6000806000600760008673ffffffffffffffffffffffffffffffffffffffff1673ffffffffffffffffffffffffffffffffffffffff16815260200190815260200160002084815481106104e0576104df611538565b5b90600052602060002090600202016040518060400160405290816000820154815260200160018201548152505090508060000151816020015192509250509250929050565b6000600254905090565b6007602052816000526040600020818154811061054b57600080fd5b9060005260206000209060020201600091509150508060000154908060010154905082565b60008061057b610a35565b9050610588858285610a4f565b610593858585610ae4565b60019150509392505050565b60006012905090565b60008060008373ffffffffffffffffffffffffffffffffffffffff1673ffffffffffffffffffffffffffffffffffffffff168152602001908152602001600020549050919050565b6105f8610bd8565b6106026000610c5f565b565b6000600560009054906101000a900473ffffffffffffffffffffffffffffffffffffffff16905090565b60606004805461063d90611507565b80601f016020809104026020016040519081016040528092919081815260200182805461066990611507565b80156106b65780601f1061068b576101008083540402835291602001916106b6565b820191906000526020600020905b81548152906001019060200180831161069957829003601f168201915b5050505050905090565b600660009054906101000a900473ffffffffffffffffffffffffffffffffffffffff1673ffffffffffffffffffffffffffffffffffffffff163373ffffffffffffffffffffffffffffffffffffffff1614610750576040517f08c379a0000000000000000000000000000000000000000000000000000000008152600401610747906115b3565b60405180910390fd5b61075a8282610d25565b600760008373ffffffffffffffffffffffffffffffffffffffff1673ffffffffffffffffffffffffffffffffffffffff1681526020019081526020016000206040518060400160405280838152602001428152509080600181540180825580915050600190039060005260206000209060020201600090919091909150600082015181600001556020820151816001015550505050565b6000806107fc610a35565b9050610809818585610ae4565b600191505092915050565b6000600160008473ffffffffffffffffffffffffffffffffffffffff1673ffffffffffffffffffffffffffffffffffffffff16815260200190815260200160002060008373ffffffffffffffffffffffffffffffffffffffff1673ffffffffffffffffffffffffffffffffffffffff16815260200190815260200160002054905092915050565b6108a3610bd8565b600073ffffffffffffffffffffffffffffffffffffffff168173ffffffffffffffffffffffffffffffffffffffff16036109155760006040517f1e4fbdf700000000000000000000000000000000000000000000000000000000815260040161090c9190611296565b60405180910390fd5b61091e81610c5f565b50565b610929610bd8565b8073ffffffffffffffffffffffffffffffffffffffff16600660009054906101000a900473ffffffffffffffffffffffffffffffffffffffff1673ffffffffffffffffffffffffffffffffffffffff167f1cf2de25c5bf439ac0287061c3a0fa69b3b02867d0ccfd2ded34e42577050b7360405160405180910390a380600660006101000a81548173ffffffffffffffffffffffffffffffffffffffff021916908373ffffffffffffffffffffffffffffffffffffffff16021790555050565b6000600760008373ffffffffffffffffffffffffffffffffffffffff1673ffffffffffffffffffffffffffffffffffffffff168152602001908152602001600020805490509050919050565b600033905090565b610a4a8383836001610da7565b505050565b6000610a5b8484610814565b90507fffffffffffffffffffffffffffffffffffffffffffffffffffffffffffffffff811015610ade5781811015610ace578281836040517ffb8f41b2000000000000000000000000000000000000000000000000000000008152600401610ac5939291906115d3565b60405180910390fd5b610add84848484036000610da7565b5b50505050565b600073ffffffffffffffffffffffffffffffffffffffff168373ffffffffffffffffffffffffffffffffffffffff1603610b565760006040517f96c6fd1e000000000000000000000000000000000000000000000000000000008152600401610b4d9190611296565b60405180910390fd5b600073ffffffffffffffffffffffffffffffffffffffff168273ffffffffffffffffffffffffffffffffffffffff1603610bc85760006040517fec442f05000000000000000000000000000000000000000000000000000000008152600401610bbf9190611296565b60405180910390fd5b610bd3838383610f7e565b505050565b610be0610a35565b73ffffffffffffffffffffffffffffffffffffffff16610bfe610604565b73ffffffffffffffffffffffffffffffffffffffff1614610c5d57610c21610a35565b6040517f118cdaa7000000000000000000000000000000000000000000000000000000008152600401610c549190611296565b60405180910390fd5b565b6000600560009054906101000a900473ffffffffffffffffffffffffffffffffffffffff16905081600560006101000a81548173ffffffffffffffffffffffffffffffffffffffff021916908373ffffffffffffffffffffffffffffffffffffffff1602179055508173ffffffffffffffffffffffffffffffffffffffff168173ffffffffffffffffffffffffffffffffffffffff167f8be0079c531659141344cd1fd0a4f28419497f9722a3daafe3b4186f6b6457e060405160405180910390a35050565b600073ffffffffffffffffffffffffffffffffffffffff168273ffffffffffffffffffffffffffffffffffffffff1603610d975760006040517fec442f05000000000000000000000000000000000000000000000000000000008152600401610d8e9190611296565b60405180910390fd5b610da360008383610f7e565b5050565b600073ffffffffffffffffffffffffffffffffffffffff168473ffffffffffffffffffffffffffffffffffffffff1603610e195760006040517fe602df05000000000000000000000000000000000000000000000000000000008152600401610e109190611296565b60405180910390fd5b600073ffffffffffffffffffffffffffffffffffffffff168373ffffffffffffffffffffffffffffffffffffffff1603610e8b5760006040517f94280d62000000000000000000000000000000000000000000000000000000008152600401610e829190611296565b60405180910390fd5b81600160008673ffffffffffffffffffffffffffffffffffffffff1673ffffffffffffffffffffffffffffffffffffffff16815260200190815260200160002060008573ffffffffffffffffffffffffffffffffffffffff1673ffffffffffffffffffffffffffffffffffffffff168152602001908152602001600020819055508015610f78578273ffffffffffffffffffffffffffffffffffffffff168473ffffffffffffffffffffffffffffffffffffffff167f8c5be1e5ebec7d5bd14f71427d1e84f3dd0314c0f7b2291e5b200ac8c7c3b92584604051610f6f91906113c6565b60405180910390a35b50505050565b600073ffffffffffffffffffffffffffffffffffffffff168373ffffffffffffffffffffffffffffffffffffffff1603610fd0578060026000828254610fc49190611639565b925050819055506110a3565b60008060008573ffffffffffffffffffffffffffffffffffffffff1673ffffffffffffffffffffffffffffffffffffffff1681526020019081526020016000205490508181101561105c578381836040517fe450d38c000000000000000000000000000000000000000000000000000000008152600401611053939291906115d3565b60405180910390fd5b8181036000808673ffffffffffffffffffffffffffffffffffffffff1673ffffffffffffffffffffffffffffffffffffffff16815260200190815260200160002081905550505b600073ffffffffffffffffffffffffffffffffffffffff168273ffffffffffffffffffffffffffffffffffffffff16036110ec5780600260008282540392505081905550611139565b806000808473ffffffffffffffffffffffffffffffffffffffff1673ffffffffffffffffffffffffffffffffffffffff168152602001908152602001600020600082825401925050819055505b8173ffffffffffffffffffffffffffffffffffffffff168373ffffffffffffffffffffffffffffffffffffffff167fddf252ad1be2c89b69c2b068fc378daa952ba7f163c4a11628f55a4df523b3ef8360405161119691906113c6565b60405180910390a3505050565b600081519050919050565b600082825260208201905092915050565b60005b838110156111dd5780820151818401526020810190506111c2565b60008484015250505050565b6000601f19601f8301169050919050565b6000611205826111a3565b61120f81856111ae565b935061121f8185602086016111bf565b611228816111e9565b840191505092915050565b6000602082019050818103600083015261124d81846111fa565b905092915050565b600073ffffffffffffffffffffffffffffffffffffffff82169050919050565b600061128082611255565b9050919050565b61129081611275565b82525050565b60006020820190506112ab6000830184611287565b92915050565b600080fd5b6112bf81611275565b81146112ca57600080fd5b50565b6000813590506112dc816112b6565b92915050565b6000819050919050565b6112f5816112e2565b811461130057600080fd5b50565b600081359050611312816112ec565b92915050565b6000806040838503121561132f5761132e6112b1565b5b600061133d858286016112cd565b925050602061134e85828601611303565b9150509250929050565b60008115159050919050565b61136d81611358565b82525050565b60006020820190506113886000830184611364565b92915050565b611397816112e2565b82525050565b60006040820190506113b2600083018561138e565b6113bf602083018461138e565b9392505050565b60006020820190506113db600083018461138e565b92915050565b6000806000606084860312156113fa576113f96112b1565b5b6000611408868287016112cd565b9350506020611419868287016112cd565b925050604061142a86828701611303565b9150509250925092565b600060ff82169050919050565b61144a81611434565b82525050565b60006020820190506114656000830184611441565b92915050565b600060208284031215611481576114806112b1565b5b600061148f848285016112cd565b91505092915050565b600080604083850312156114af576114ae6112b1565b5b60006114bd858286016112cd565b92505060206114ce858286016112cd565b9150509250929050565b7f4e487b7100000000000000000000000000000000000000000000000000000000600052602260045260246000fd5b6000600282049050600182168061151f57607f821691505b602082108103611532576115316114d8565b5b50919050565b7f4e487b7100000000000000000000000000000000000000000000000000000000600052603260045260246000fd5b7f4f6e6c79206d696e7465722063616e206d696e74000000000000000000000000600082015250565b600061159d6014836111ae565b91506115a882611567565b602082019050919050565b600060208201905081810360008301526115cc81611590565b9050919050565b60006060820190506115e86000830186611287565b6115f5602083018561138e565b611602604083018461138e565b949350505050565b7f4e487b7100000000000000000000000000000000000000000000000000000000600052601160045260246000fd5b6000611644826112e2565b915061164f836112e2565b92508282019050808211156116675761166661160a565b5b9291505056fea26469706673582212206df2312a7a78aceb957849345232552028445756107bc85157e71bd293c9671664736f6c634300081a0033",
  "linkReferences": {},
  "deployedLinkReferences": {}
}