{
  "_format": "hh-sol-artifact-1",
  "contractName": "FunditOracle",
  "sourceName": "contracts/FunditOracle.sol",
  "abi": [
    {
      "inputs": [],
      "stateMutability": "nonpayable",
      "type": "constructor"
    },
    {
      "anonymous": false,
      "inputs": [
        {
          "indexed": true,
          "internalType": "uint256",
          "name": "requestId",
          "type": "uint256"
        },
        {
          "indexed": true,
          "internalType": "uint256",
          "name": "contractId",
          "type": "uint256"
        },
        {
          "indexed": true,
          "internalType": "address",
          "name": "requester",
          "type": "address"
        },
        {
          "indexed": false,
          "internalType": "string",
          "name": "evidenceHash",
          "type": "string"
        },
        {
          "indexed": false,
          "internalType": "uint256",
          "name": "timestamp",
          "type": "uint256"
        }
      ],
      "name": "VerificationRequested",
      "type": "event"
    },
    {
      "anonymous": false,
      "inputs": [
        {
          "indexed": true,
          "internalType": "uint256",
          "name": "requestId",
          "type": "uint256"
        },
        {
          "indexed": false,
          "internalType": "enum FunditOracle.VerificationStatus",
          "name": "status",
          "type": "uint8"
        },
        {
          "indexed": false,
          "internalType": "uint256",
          "name": "timestamp",
          "type": "uint256"
        }
      ],
      "name": "VerificationResolved",
      "type": "event"
    },
    {
      "inputs": [
        {
          "internalType": "uint256",
          "name": "contractId",
          "type": "uint256"
        }
      ],
      "name": "getVerificationStatus",
      "outputs": [
        {
          "internalType": "enum FunditOracle.VerificationStatus",
          "name": "",
          "type": "uint8"
        }
      ],
      "stateMutability": "view",
      "type": "function"
    },
    {
      "inputs": [],
      "name": "oracleAdmin",
      "outputs": [
        {
          "internalType": "address",
          "name": "",
          "type": "address"
        }
      ],
      "stateMutability": "view",
      "type": "function"
    },
    {
      "inputs": [
        {
          "internalType": "uint256",
          "name": "",
          "type": "uint256"
        }
      ],
      "name": "requestByContract",
      "outputs": [
        {
          "internalType": "uint256",
          "name": "",
          "type": "uint256"
        }
      ],
      "stateMutability": "view",
      "type": "function"
    },
    {
      "inputs": [],
      "name": "requestCount",
      "outputs": [
        {
          "internalType": "uint256",
          "name": "",
          "type": "uint256"
        }
      ],
      "stateMutability": "view",
      "type": "function"
    },
    {
      "inputs": [
        {
          "internalType": "uint256",
          "name": "",
          "type": "uint256"
        }
      ],
      "name": "requests",
      "outputs": [
        {
          "internalType": "uint256",
          "name": "contractId",
          "type": "uint256"
        },
        {
          "internalType": "address",
          "name": "requester",
          "type": "address"
        },
        {
          "internalType": "string",
          "name": "evidenceHash",
          "type": "string"
        },
        {
          "internalType": "enum FunditOracle.VerificationStatus",
          "name": "status",
          "type": "uint8"
        },
        {
          "internalType": "uint256",
          "name": "timestamp",
          "type": "uint256"
        }
      ],
      "stateMutability": "view",
      "type": "function"
    },
    {
      "inputs": [
        {
          "internalType": "address",
          "name": "newAdmin",
          "type": "address"
        }
      ],
      "name": "setOracleAdmin",
      "outputs": [],
      "stateMutability": "nonpayable",
      "type": "function"
    },
    {
      "inputs": [
        {
          "internalType": "uint256",
          "name": "contractId",
          "type": "uint256"
        },
        {
          "internalType": "string",
          "name": "evidenceHash",
          "type": "string"
        }
      ],
      "name": "submitVerificationRequest",
      "outputs": [],
      "stateMutability": "nonpayable",
      "type": "function"
    },
    {
      "inputs": [
        {
          "internalType": "uint256",
          "name": "requestId",
          "type": "uint256"
        },
        {
          "internalType": "bool",
          "name": "approved",
          "type": "bool"
        }
      ],
      "name": "verifyClaim",
      "outputs": [],
      "stateMutability": "nonpayable",
      "type": "function"
    }
  ],
  "bytecode": "0x6080604052348015600f57600080fd5b50336000806101000a81548173ffffffffffffffffffffffffffffffffffffffff021916908373ffffffffffffffffffffffffffffffffffffffff1602179055506112018061005f6000396000f3fe608060405234801561001057600080fd5b50600436106100885760003560e01c806381d12c581161005b57806381d12c5814610113578063a7afb83e14610147578063b464980614610177578063dea5e6e81461019357610088565b80631d9425ca1461008d5780633cfab6f5146100bd5780635badbe4c146100d95780637bc635cb146100f7575b600080fd5b6100a760048036038101906100a2919061084f565b6101b1565b6040516100b491906108f3565b60405180910390f35b6100d760048036038101906100d29190610973565b610239565b005b6100e161046a565b6040516100ee91906109e2565b60405180910390f35b610111600480360381019061010c9190610a5b565b610470565b005b61012d6004803603810190610128919061084f565b610541565b60405161013e959493929190610b27565b60405180910390f35b610161600480360381019061015c919061084f565b61062c565b60405161016e91906109e2565b60405180910390f35b610191600480360381019061018c9190610bb9565b610644565b005b61019b6107eb565b6040516101a89190610bf9565b60405180910390f35b600080600360008481526020019081526020016000205490506000810361020d576040517f08c379a000000000000000000000000000000000000000000000000000000000815260040161020490610c60565b60405180910390fd5b6002600082815260200190815260200160002060030160009054906101000a900460ff16915050919050565b600060036000858152602001908152602001600020541461028f576040517f08c379a000000000000000000000000000000000000000000000000000000000815260040161028690610ccc565b60405180910390fd5b60018060008282546102a19190610d1b565b925050819055506040518060a001604052808481526020013373ffffffffffffffffffffffffffffffffffffffff16815260200183838080601f016020809104026020016040519081016040528093929190818152602001838380828437600081840152601f19601f820116905080830192505050505050508152602001600060028111156103335761033261087c565b5b8152602001428152506002600060015481526020019081526020016000206000820151816000015560208201518160010160006101000a81548173ffffffffffffffffffffffffffffffffffffffff021916908373ffffffffffffffffffffffffffffffffffffffff16021790555060408201518160020190816103b79190610f8a565b5060608201518160030160006101000a81548160ff021916908360028111156103e3576103e261087c565b5b02179055506080820151816004015590505060015460036000858152602001908152602001600020819055503373ffffffffffffffffffffffffffffffffffffffff16836001547f97a61fbd095b281337ae5f18f905e449ebda362ed9a204efb5f6fec60c51e57585854260405161045d93929190611098565b60405180910390a4505050565b60015481565b60008054906101000a900473ffffffffffffffffffffffffffffffffffffffff1673ffffffffffffffffffffffffffffffffffffffff163373ffffffffffffffffffffffffffffffffffffffff16146104fe576040517f08c379a00000000000000000000000000000000000000000000000000000000081526004016104f590611116565b60405180910390fd5b806000806101000a81548173ffffffffffffffffffffffffffffffffffffffff021916908373ffffffffffffffffffffffffffffffffffffffff16021790555050565b60026020528060005260406000206000915090508060000154908060010160009054906101000a900473ffffffffffffffffffffffffffffffffffffffff169080600201805461059090610dad565b80601f01602080910402602001604051908101604052809291908181526020018280546105bc90610dad565b80156106095780601f106105de57610100808354040283529160200191610609565b820191906000526020600020905b8154815290600101906020018083116105ec57829003601f168201915b5050505050908060030160009054906101000a900460ff16908060040154905085565b60036020528060005260406000206000915090505481565b60008054906101000a900473ffffffffffffffffffffffffffffffffffffffff1673ffffffffffffffffffffffffffffffffffffffff163373ffffffffffffffffffffffffffffffffffffffff16146106d2576040517f08c379a00000000000000000000000000000000000000000000000000000000081526004016106c990611116565b60405180910390fd5b6000600260008481526020019081526020016000209050600060028111156106fd576106fc61087c565b5b8160030160009054906101000a900460ff1660028111156107215761072061087c565b5b14610761576040517f08c379a000000000000000000000000000000000000000000000000000000000815260040161075890611182565b60405180910390fd5b8161076d576002610770565b60015b8160030160006101000a81548160ff021916908360028111156107965761079561087c565b5b0217905550827f62145e66c0e13baec361ebfcff0940932fb25257ddcaae367e610817be0f6cbc8260030160009054906101000a900460ff16426040516107de9291906111a2565b60405180910390a2505050565b60008054906101000a900473ffffffffffffffffffffffffffffffffffffffff1681565b600080fd5b600080fd5b6000819050919050565b61082c81610819565b811461083757600080fd5b50565b60008135905061084981610823565b92915050565b6000602082840312156108655761086461080f565b5b60006108738482850161083a565b91505092915050565b7f4e487b7100000000000000000000000000000000000000000000000000000000600052602160045260246000fd5b600381106108bc576108bb61087c565b5b50565b60008190506108cd826108ab565b919050565b60006108dd826108bf565b9050919050565b6108ed816108d2565b82525050565b600060208201905061090860008301846108e4565b92915050565b600080fd5b600080fd5b600080fd5b60008083601f8401126109335761093261090e565b5b8235905067ffffffffffffffff8111156109505761094f610913565b5b60208301915083600182028301111561096c5761096b610918565b5b9250929050565b60008060006040848603121561098c5761098b61080f565b5b600061099a8682870161083a565b935050602084013567ffffffffffffffff8111156109bb576109ba610814565b5b6109c78682870161091d565b92509250509250925092565b6109dc81610819565b82525050565b60006020820190506109f760008301846109d3565b92915050565b600073ffffffffffffffffffffffffffffffffffffffff82169050919050565b6000610a28826109fd565b9050919050565b610a3881610a1d565b8114610a4357600080fd5b50565b600081359050610a5581610a2f565b92915050565b600060208284031215610a7157610a7061080f565b5b6000610a7f84828501610a46565b91505092915050565b610a9181610a1d565b82525050565b600081519050919050565b600082825260208201905092915050565b60005b83811015610ad1578082015181840152602081019050610ab6565b60008484015250505050565b6000601f19601f8301169050919050565b6000610af982610a97565b610b038185610aa2565b9350610b13818560208601610ab3565b610b1c81610add565b840191505092915050565b600060a082019050610b3c60008301886109d3565b610b496020830187610a88565b8181036040830152610b5b8186610aee565b9050610b6a60608301856108e4565b610b7760808301846109d3565b9695505050505050565b60008115159050919050565b610b9681610b81565b8114610ba157600080fd5b50565b600081359050610bb381610b8d565b92915050565b60008060408385031215610bd057610bcf61080f565b5b6000610bde8582860161083a565b9250506020610bef85828601610ba4565b9150509250929050565b6000602082019050610c0e6000830184610a88565b92915050565b7f4e6f207265717565737420666f756e6400000000000000000000000000000000600082015250565b6000610c4a601083610aa2565b9150610c5582610c14565b602082019050919050565b60006020820190508181036000830152610c7981610c3d565b9050919050565b7f416c726561647920726571756573746564000000000000000000000000000000600082015250565b6000610cb6601183610aa2565b9150610cc182610c80565b602082019050919050565b60006020820190508181036000830152610ce581610ca9565b9050919050565b7f4e487b7100000000000000000000000000000000000000000000000000000000600052601160045260246000fd5b6000610d2682610819565b9150610d3183610819565b9250828201905080821115610d4957610d48610cec565b5b92915050565b7f4e487b7100000000000000000000000000000000000000000000000000000000600052604160045260246000fd5b7f4e487b7100000000000000000000000000000000000000000000000000000000600052602260045260246000fd5b60006002820490506001821680610dc557607f821691505b602082108103610dd857610dd7610d7e565b5b50919050565b60008190508160005260206000209050919050565b60006020601f8301049050919050565b600082821b905092915050565b600060088302610e407fffffffffffffffffffffffffffffffffffffffffffffffffffffffffffffffff82610e03565b610e4a8683610e03565b95508019841693508086168417925050509392505050565b6000819050919050565b6000610e87610e82610e7d84610819565b610e62565b610819565b9050919050565b6000819050919050565b610ea183610e6c565b610eb5610ead82610e8e565b848454610e10565b825550505050565b600090565b610eca610ebd565b610ed5818484610e98565b505050565b5b81811015610ef957610eee600082610ec2565b600181019050610edb565b5050565b601f821115610f3e57610f0f81610dde565b610f1884610df3565b81016020851015610f27578190505b610f3b610f3385610df3565b830182610eda565b50505b505050565b600082821c905092915050565b6000610f6160001984600802610f43565b1980831691505092915050565b6000610f7a8383610f50565b9150826002028217905092915050565b610f9382610a97565b67ffffffffffffffff811115610fac57610fab610d4f565b5b610fb68254610dad565b610fc1828285610efd565b600060209050601f831160018114610ff45760008415610fe2578287015190505b610fec8582610f6e565b865550611054565b601f19841661100286610dde565b60005b8281101561102a57848901518255600182019150602085019450602081019050611005565b868310156110475784890151611043601f891682610f50565b8355505b6001600288020188555050505b505050505050565b82818337600083830152505050565b60006110778385610aa2565b935061108483858461105c565b61108d83610add565b840190509392505050565b600060408201905081810360008301526110b381858761106b565b90506110c260208301846109d3565b949350505050565b7f4f6e6c79206f7261636c652061646d696e000000000000000000000000000000600082015250565b6000611100601183610aa2565b915061110b826110ca565b602082019050919050565b6000602082019050818103600083015261112f816110f3565b9050919050565b7f416c726561647920766572696669656400000000000000000000000000000000600082015250565b600061116c601083610aa2565b915061117782611136565b602082019050919050565b6000602082019050818103600083015261119b8161115f565b9050919050565b60006040820190506111b760008301856108e4565b6111c460208301846109d3565b939250505056fea26469706673582212206e5ba640833fd1f13aaaf503bd9400ecbfbd69aeb98aa199a902350de107a36f64736f6c634300081a0033",
  "linkReferences": {},
  "deployedLinkReferences": {}
}