{
  "_format": "hh-sol-artifact-1",
  "contractName": "FunditToken",
  "sourceName": "contracts/FunditToken.sol",
  "abi": [
    {
      "inputs": [],
      "stateMutability": "nonpayable",
      "type": "constructor"
    },
    {
      "inputs": [
        {
          "internalType": "address",
          "name": "spender",
          "type": "address"
        },
        {
          "internalType": "uint256",
          "name": "allowance",
          "type": "uint256"
        },
        {
          "internalType": "uint256",
          "name": "needed",
          "type": "uint256"
        }
      ],
      "name": "ERC20InsufficientAllowance",
      "type": "error"
    },
    {
      "inputs": [
        {
          "internalType": "address",
          "name": "sender",
          "type": "address"
        },
        {
          "internalType": "uint256",
          "name": "balance",
          "type": "uint256"
        },
        {
          "internalType": "uint256",
          "name": "needed",
          "type": "uint256"
        }
      ],
      "name": "ERC20InsufficientBalance",
      "type": "error"
    },
    {
      "inputs": [
        {
          "internalType": "address",
          "name": "approver",
          "type": "address"
        }
      ],
      "name": "ERC20InvalidApprover",
      "type": "error"
    },
    {
      "inputs": [
        {
          "internalType": "address",
          "name": "receiver",
          "type": "address"
        }
      ],
      "name": "ERC20InvalidReceiver",
      "type": "error"
    },
    {
      "inputs": [
        {
          "internalType": "address",
          "name": "sender",
          "type": "address"
        }
      ],
      "name": "ERC20InvalidSender",
      "type": "error"
    },
    {
      "inputs": [
        {
          "internalType": "address",
          "name": "spender",
          "type": "address"
        }
      ],
      "name": "ERC20InvalidSpender",
      "type": "error"
    },
    {
      "inputs": [
        {
          "internalType": "address",
          "name": "owner",
          "type": "address"
        }
      ],
      "name": "OwnableInvalidOwner",
      "type": "error"
    },
    {
      "inputs": [
        {
          "internalType": "address",
          "name": "account",
          "type": "address"
        }
      ],
      "name": "OwnableUnauthorizedAccount",
      "type": "error"
    },
    {
      "anonymous": false,
      "inputs": [
        {
          "indexed": true,
          "internalType": "address",
          "name": "owner",
          "type": "address"
        },
        {
          "indexed": true,
          "internalType": "address",
          "name": "spender",
          "type": "address"
        },
        {
          "indexed": false,
          "internalType": "uint256",
          "name": "value",
          "type": "uint256"
        }
      ],
      "name": "Approval",
      "type": "event"
    },
    {
      "anonymous": false,
      "inputs": [
        {
          "indexed": true,
          "internalType": "address",
          "name": "previousOwner",
          "type": "address"
        },
        {
          "indexed": true,
          "internalType": "address",
          "name": "newOwner",
          "type": "address"
        }
      ],
      "name": "OwnershipTransferred",
      "type": "event"
    },
    {
      "anonymous": false,
      "inputs": [
        {
          "indexed": true,
          "internalType": "address",
          "name": "user",
          "type": "address"
        },
        {
          "indexed": false,
          "internalType": "uint256",
          "name": "amount",
          "type": "uint256"
        }
      ],
      "name": "RewardClaimed",
      "type": "event"
    },
    {
      "anonymous": false,
      "inputs": [
        {
          "indexed": true,
          "internalType": "address",
          "name": "from",
          "type": "address"
        },
        {
          "indexed": true,
          "internalType": "address",
          "name": "to",
          "type": "address"
        },
        {
          "indexed": false,
          "internalType": "uint256",
          "name": "value",
          "type": "uint256"
        }
      ],
      "name": "Transfer",
      "type": "event"
    },
    {
      "inputs": [
        {
          "internalType": "address",
          "name": "owner",
          "type": "address"
        },
        {
          "internalType": "address",
          "name": "spender",
          "type": "address"
        }
      ],
      "name": "allowance",
      "outputs": [
        {
          "internalType": "uint256",
          "name": "",
          "type": "uint256"
        }
      ],
      "stateMutability": "view",
      "type": "function"
    },
    {
      "inputs": [
        {
          "internalType": "address",
          "name": "spender",
          "type": "address"
        },
        {
          "internalType": "uint256",
          "name": "value",
          "type": "uint256"
        }
      ],
      "name": "approve",
      "outputs": [
        {
          "internalType": "bool",
          "name": "",
          "type": "bool"
        }
      ],
      "stateMutability": "nonpayable",
      "type": "function"
    },
    {
      "inputs": [
        {
          "internalType": "address",
          "name": "account",
          "type": "address"
        }
      ],
      "name": "balanceOf",
      "outputs": [
        {
          "internalType": "uint256",
          "name": "",
          "type": "uint256"
        }
      ],
      "stateMutability": "view",
      "type": "function"
    },
    {
      "inputs": [
        {
          "internalType": "address",
          "name": "user",
          "type": "address"
        },
        {
          "internalType": "uint256",
          "name": "amount",
          "type": "uint256"
        }
      ],
      "name": "claimReward",
      "outputs": [],
      "stateMutability": "nonpayable",
      "type": "function"
    },
    {
      "inputs": [
        {
          "internalType": "address",
          "name": "",
          "type": "address"
        }
      ],
      "name": "claimedRewards",
      "outputs": [
        {
          "internalType": "uint256",
          "name": "",
          "type": "uint256"
        }
      ],
      "stateMutability": "view",
      "type": "function"
    },
    {
      "inputs": [],
      "name": "decimals",
      "outputs": [
        {
          "internalType": "uint8",
          "name": "",
          "type": "uint8"
        }
      ],
      "stateMutability": "view",
      "type": "function"
    },
    {
      "inputs": [
        {
          "internalType": "address",
          "name": "user",
          "type": "address"
        }
      ],
      "name": "getClaimedReward",
      "outputs": [
        {
          "internalType": "uint256",
          "name": "",
          "type": "uint256"
        }
      ],
      "stateMutability": "view",
      "type": "function"
    },
    {
      "inputs": [
        {
          "internalType": "address",
          "name": "to",
          "type": "address"
        },
        {
          "internalType": "uint256",
          "name": "amount",
          "type": "uint256"
        }
      ],
      "name": "mint",
      "outputs": [],
      "stateMutability": "nonpayable",
      "type": "function"
    },
    {
      "inputs": [],
      "name": "name",
      "outputs": [
        {
          "internalType": "string",
          "name": "",
          "type": "string"
        }
      ],
      "stateMutability": "view",
      "type": "function"
    },
    {
      "inputs": [],
      "name": "owner",
      "outputs": [
        {
          "internalType": "address",
          "name": "",
          "type": "address"
        }
      ],
      "stateMutability": "view",
      "type": "function"
    },
    {
      "inputs": [],
      "name": "renounceOwnership",
      "outputs": [],
      "stateMutability": "nonpayable",
      "type": "function"
    },
    {
      "inputs": [],
      "name": "symbol",
      "outputs": [
        {
          "internalType": "string",
          "name": "",
          "type": "string"
        }
      ],
      "stateMutability": "view",
      "type": "function"
    },
    {
      "inputs": [],
      "name": "totalSupply",
      "outputs": [
        {
          "internalType": "uint256",
          "name": "",
          "type": "uint256"
        }
      ],
      "stateMutability": "view",
      "type": "function"
    },
    {
      "inputs": [
        {
          "internalType": "address",
          "name": "to",
          "type": "address"
        },
        {
          "internalType": "uint256",
          "name": "value",
          "type": "uint256"
        }
      ],
      "name": "transfer",
      "outputs": [
        {
          "internalType": "bool",
          "name": "",
          "type": "bool"
        }
      ],
      "stateMutability": "nonpayable",
      "type": "function"
    },
    {
      "inputs": [
        {
          "internalType": "address",
          "name": "from",
          "type": "address"
        },
        {
          "internalType": "address",
          "name": "to",
          "type": "address"
        },
        {
          "internalType": "uint256",
          "name": "value",
          "type": "uint256"
        }
      ],
      "name": "transferFrom",
      "outputs": [
        {
          "internalType": "bool",
          "name": "",
          "type": "bool"
        }
      ],
      "stateMutability": "nonpayable",
      "type": "function"
    },
    {
      "inputs": [
        {
          "internalType": "address",
          "name": "newOwner",
          "type": "address"
        }
      ],
      "name": "transferOwnership",
      "outputs": [],
      "stateMutability": "nonpayable",
      "type": "function"
    }
  ],
  "bytecode": "0x60806040523461038a57604080519081016001600160401b03811182821017610295576040908152600c82526b233ab73234ba102a37b5b2b760a11b602083015280519081016001600160401b0381118282101761029557604052600381526211911560ea1b602082015281516001600160401b03811161029557600354600181811c91168015610380575b602082101461027557601f811161031b575b50602092601f82116001146102b657928192936000926102ab575b50508160011b916000199060031b1c1916176003555b80516001600160401b03811161029557600454600181811c9116801561028b575b602082101461027557601f8111610210575b50602091601f82116001146101ac579181926000926101a1575b50508160011b916000199060031b1c1916176004555b331561018b5760058054336001600160a01b03198216811790925560405191906001600160a01b03167f8be0079c531659141344cd1fd0a4f28419497f9722a3daafe3b4186f6b6457e0600080a361099d90816103908239f35b631e4fbdf760e01b600052600060045260246000fd5b01519050388061011b565b601f198216926004600052806000209160005b8581106101f8575083600195106101df575b505050811b01600455610131565b015160001960f88460031b161c191690553880806101d1565b919260206001819286850151815501940192016101bf565b60046000527f8a35acfbc15ff81a39ae7d344fd709f28e8600b4aa8c65c6b64bfe7fe36bd19b601f830160051c8101916020841061026b575b601f0160051c01905b81811061025f5750610101565b60008155600101610252565b9091508190610249565b634e487b7160e01b600052602260045260246000fd5b90607f16906100ef565b634e487b7160e01b600052604160045260246000fd5b0151905038806100b8565b601f198216936003600052806000209160005b86811061030357508360019596106102ea575b505050811b016003556100ce565b015160001960f88460031b161c191690553880806102dc565b919260206001819286850151815501940192016102c9565b60036000527fc2575a0e9e593c00f959f8c92f12db2869c3395a3b0502d05e2516446f71f85b601f830160051c81019160208410610376575b601f0160051c01905b81811061036a575061009d565b6000815560010161035d565b9091508190610354565b90607f169061008b565b600080fdfe608080604052600436101561001357600080fd5b60003560e01c90816306fdde03146106b057508063095ea7b31461062a5780631359e6f7146101af578063174e31c41461055157806318160ddd1461053357806323b872dd14610446578063313ce5671461042a57806340c10f19146103fb57806370a08231146103c1578063715018a6146103645780638da5cb5b1461033b57806395d89b411461021a578063a9059cbb146101e9578063bd834345146101af578063dd62ed3e1461015e5763f2fde38b146100cf57600080fd5b34610159576020366003190112610159576100e86107cc565b6100f061081b565b6001600160a01b0316801561014357600580546001600160a01b0319811683179091556001600160a01b03167f8be0079c531659141344cd1fd0a4f28419497f9722a3daafe3b4186f6b6457e0600080a3005b631e4fbdf760e01b600052600060045260246000fd5b600080fd5b34610159576040366003190112610159576101776107cc565b61017f6107e2565b6001600160a01b039182166000908152600160209081526040808320949093168252928352819020549051908152f35b34610159576020366003190112610159576001600160a01b036101d06107cc565b1660005260066020526020604060002054604051908152f35b346101595760403660031901126101595761020f6102056107cc565b60243590336108b8565b602060405160018152f35b346101595760003660031901126101595760405160006004548060011c90600181168015610331575b60208310811461031d5782855290811561030157506001146102aa575b50819003601f01601f191681019067ffffffffffffffff8211818310176102945761029082918260405282610783565b0390f35b634e487b7160e01b600052604160045260246000fd5b905060046000527f8a35acfbc15ff81a39ae7d344fd709f28e8600b4aa8c65c6b64bfe7fe36bd19b6000905b8282106102eb57506020915082010182610260565b60018160209254838588010152019101906102d6565b90506020925060ff191682840152151560051b82010182610260565b634e487b7160e01b84526022600452602484fd5b91607f1691610243565b34610159576000366003190112610159576005546040516001600160a01b039091168152602090f35b346101595760003660031901126101595761037d61081b565b600580546001600160a01b031981169091556000906001600160a01b03167f8be0079c531659141344cd1fd0a4f28419497f9722a3daafe3b4186f6b6457e08280a3005b34610159576020366003190112610159576001600160a01b036103e26107cc565b1660005260006020526020604060002054604051908152f35b34610159576040366003190112610159576104286104176107cc565b61041f61081b565b60243590610844565b005b3461015957600036600319011261015957602060405160128152f35b346101595760603660031901126101595761045f6107cc565b6104676107e2565b6001600160a01b03821660008181526001602090815260408083203384529091529020549092604435929160001981106104a7575b5061020f93506108b8565b8381106105165784156105005733156104ea5761020f946000526001602052604060002060018060a01b033316600052602052836040600020910390558461049c565b634a1406b160e11b600052600060045260246000fd5b63e602df0560e01b600052600060045260246000fd5b8390637dc7a0d960e11b6000523360045260245260445260646000fd5b34610159576000366003190112610159576020600254604051908152f35b346101595760403660031901126101595761056a6107cc565b60243561057561081b565b80156105d5576020816105cc7f106f923f993c2149d49b4255ff723acafa1f2d94393f561d3eda32ae348f72419360018060a01b03861695866000526006855260406000206105c58382546107f8565b9055610844565b604051908152a2005b60405162461bcd60e51b815260206004820152602760248201527f52657761726420616d6f756e74206d7573742062652067726561746572207468604482015266616e207a65726f60c81b6064820152608490fd5b34610159576040366003190112610159576106436107cc565b602435903315610500576001600160a01b03169081156104ea57336000526001602052604060002082600052602052806040600020556040519081527f8c5be1e5ebec7d5bd14f71427d1e84f3dd0314c0f7b2291e5b200ac8c7c3b92560203392a3602060405160018152f35b346101595760003660031901126101595760006003548060011c90600181168015610779575b60208310811461031d5782855290811561030157506001146107225750819003601f01601f191681019067ffffffffffffffff8211818310176102945761029082918260405282610783565b905060036000527fc2575a0e9e593c00f959f8c92f12db2869c3395a3b0502d05e2516446f71f85b6000905b82821061076357506020915082010182610260565b600181602092548385880101520191019061074e565b91607f16916106d6565b91909160208152825180602083015260005b8181106107b6575060409293506000838284010152601f8019910116010190565b8060208092870101516040828601015201610795565b600435906001600160a01b038216820361015957565b602435906001600160a01b038216820361015957565b9190820180921161080557565b634e487b7160e01b600052601160045260246000fd5b6005546001600160a01b0316330361082f57565b63118cdaa760e01b6000523360045260246000fd5b6001600160a01b03169081156108a257610860816002546107f8565b6002557fddf252ad1be2c89b69c2b068fc378daa952ba7f163c4a11628f55a4df523b3ef602060009284845283825260408420818154019055604051908152a3565b63ec442f0560e01b600052600060045260246000fd5b6001600160a01b0316908115610951576001600160a01b03169182156108a25760008281528060205260408120548281106109375791604082827fddf252ad1be2c89b69c2b068fc378daa952ba7f163c4a11628f55a4df523b3ef958760209652828652038282205586815280845220818154019055604051908152a3565b916064928463391434e360e21b8452600452602452604452fd5b634b637e8f60e11b600052600060045260246000fdfea2646970667358221220e45c3ce69255787f195adc2eb3475941186bed84fee43d2ee4189f845f5028d264736f6c634300081a0033",
  "linkReferences": {},
  "deployedLinkReferences": {}
}