{
  "_format": "hh-sol-artifact-1",
  "contractName": "FunditProposal",
  "sourceName": "contracts/FunditProposal.sol",
  "abi": [
    {
      "anonymous": false,
      "inputs": [
        {
          "indexed": true,
          "internalType": "uint256",
          "name": "id",
          "type": "uint256"
        },
        {
          "indexed": true,
          "internalType": "address",
          "name": "proposer",
          "type": "address"
        },
        {
          "indexed": false,
          "internalType": "string",
          "name": "title",
          "type": "string"
        },
        {
          "indexed": false,
          "internalType": "uint256",
          "name": "coverageAmount",
          "type": "uint256"
        },
        {
          "indexed": false,
          "internalType": "uint256",
          "name": "premium",
          "type": "uint256"
        },
        {
          "indexed": false,
          "internalType": "uint256",
          "name": "deadline",
          "type": "uint256"
        }
      ],
      "name": "ProposalCreated",
      "type": "event"
    },
    {
      "inputs": [
        {
          "internalType": "string",
          "name": "_title",
          "type": "string"
        },
        {
          "internalType": "string",
          "name": "_description",
          "type": "string"
        },
        {
          "internalType": "uint256",
          "name": "_coverageAmount",
          "type": "uint256"
        },
        {
          "internalType": "uint256",
          "name": "_premium",
          "type": "uint256"
        },
        {
          "internalType": "uint256",
          "name": "_deadline",
          "type": "uint256"
        }
      ],
      "name": "createProposal",
      "outputs": [],
      "stateMutability": "nonpayable",
      "type": "function"
    },
    {
      "inputs": [],
      "name": "getAllProposals",
      "outputs": [
        {
          "components": [
            {
              "internalType": "uint256",
              "name": "id",
              "type": "uint256"
            },
            {
              "internalType": "address",
              "name": "proposer",
              "type": "address"
            },
            {
              "internalType": "string",
              "name": "title",
              "type": "string"
            },
            {
              "internalType": "string",
              "name": "description",
              "type": "string"
            },
            {
              "internalType": "uint256",
              "name": "coverageAmount",
              "type": "uint256"
            },
            {
              "internalType": "uint256",
              "name": "premium",
              "type": "uint256"
            },
            {
              "internalType": "uint256",
              "name": "deadline",
              "type": "uint256"
            }
          ],
          "internalType": "struct FunditProposal.Proposal[]",
          "name": "",
          "type": "tuple[]"
        }
      ],
      "stateMutability": "view",
      "type": "function"
    },
    {
      "inputs": [
        {
          "internalType": "uint256",
          "name": "_id",
          "type": "uint256"
        }
      ],
      "name": "getProposal",
      "outputs": [
        {
          "components": [
            {
              "internalType": "uint256",
              "name": "id",
              "type": "uint256"
            },
            {
              "internalType": "address",
              "name": "proposer",
              "type": "address"
            },
            {
              "internalType": "string",
              "name": "title",
              "type": "string"
            },
            {
              "internalType": "string",
              "name": "description",
              "type": "string"
            },
            {
              "internalType": "uint256",
              "name": "coverageAmount",
              "type": "uint256"
            },
            {
              "internalType": "uint256",
              "name": "premium",
              "type": "uint256"
            },
            {
              "internalType": "uint256",
              "name": "deadline",
              "type": "uint256"
            }
          ],
          "internalType": "struct FunditProposal.Proposal",
          "name": "",
          "type": "tuple"
        }
      ],
      "stateMutability": "view",
      "type": "function"
    },
    {
      "inputs": [],
      "name": "proposalCount",
      "outputs": [
        {
          "internalType": "uint256",
          "name": "",
          "type": "uint256"
        }
      ],
      "stateMutability": "view",
      "type": "function"
    },
    {
      "inputs": [
        {
          "internalType": "uint256",
          "name": "",
          "type": "uint256"
        }
      ],
      "name": "proposals",
      "outputs": [
        {
          "internalType": "uint256",
          "name": "id",
          "type": "uint256"
        },
        {
          "internalType": "address",
          "name": "proposer",
          "type": "address"
        },
        {
          "internalType": "string",
          "name": "title",
          "type": "string"
        },
        {
          "internalType": "string",
          "name": "description",
          "type": "string"
        },
        {
          "internalType": "uint256",
          "name": "coverageAmount",
          "type": "uint256"
        },
        {
          "internalType": "uint256",
          "name": "premium",
          "type": "uint256"
        },
        {
          "internalType": "uint256",
          "name": "deadline",
          "type": "uint256"
        }
      ],
      "stateMutability": "view",
      "type": "function"
    }
  ],
  "bytecode": "0x6080604052348015600f57600080fd5b506113918061001f6000396000f3fe608060405234801561001057600080fd5b50600436106100575760003560e01c8063013cf08b1461005c57806333423c0614610092578063c7f758a8146100ae578063cceb68f5146100de578063da35c664146100fc575b600080fd5b610076600480360381019061007191906108e2565b61011a565b60405161008997969594939291906109ef565b60405180910390f35b6100ac60048036038101906100a79190610ba1565b61028c565b005b6100c860048036038101906100c391906108e2565b610400565b6040516100d59190610d5f565b60405180910390f35b6100e66105cf565b6040516100f39190610ee6565b60405180910390f35b61010461083f565b6040516101119190610f08565b60405180910390f35b60016020528060005260406000206000915090508060000154908060010160009054906101000a900473ffffffffffffffffffffffffffffffffffffffff169080600201805461016990610f52565b80601f016020809104026020016040519081016040528092919081815260200182805461019590610f52565b80156101e25780601f106101b7576101008083540402835291602001916101e2565b820191906000526020600020905b8154815290600101906020018083116101c557829003601f168201915b5050505050908060030180546101f790610f52565b80601f016020809104026020016040519081016040528092919081815260200182805461022390610f52565b80156102705780601f1061024557610100808354040283529160200191610270565b820191906000526020600020905b81548152906001019060200180831161025357829003601f168201915b5050505050908060040154908060050154908060060154905087565b600160008082825461029e9190610fb2565b925050819055506040518060e0016040528060005481526020013373ffffffffffffffffffffffffffffffffffffffff1681526020018681526020018581526020018481526020018381526020018281525060016000805481526020019081526020016000206000820151816000015560208201518160010160006101000a81548173ffffffffffffffffffffffffffffffffffffffff021916908373ffffffffffffffffffffffffffffffffffffffff160217905550604082015181600201908161036a9190611192565b5060608201518160030190816103809190611192565b506080820151816004015560a0820151816005015560c082015181600601559050503373ffffffffffffffffffffffffffffffffffffffff166000547f6b04e3d11c426737470e9f5cdd847185e72cb1b770b7b6781c49838732a9011e878686866040516103f19493929190611264565b60405180910390a35050505050565b610408610845565b600160008381526020019081526020016000206040518060e0016040529081600082015481526020016001820160009054906101000a900473ffffffffffffffffffffffffffffffffffffffff1673ffffffffffffffffffffffffffffffffffffffff1673ffffffffffffffffffffffffffffffffffffffff16815260200160028201805461049690610f52565b80601f01602080910402602001604051908101604052809291908181526020018280546104c290610f52565b801561050f5780601f106104e45761010080835404028352916020019161050f565b820191906000526020600020905b8154815290600101906020018083116104f257829003601f168201915b5050505050815260200160038201805461052890610f52565b80601f016020809104026020016040519081016040528092919081815260200182805461055490610f52565b80156105a15780601f10610576576101008083540402835291602001916105a1565b820191906000526020600020905b81548152906001019060200180831161058457829003601f168201915b5050505050815260200160048201548152602001600582015481526020016006820154815250509050919050565b60606000805467ffffffffffffffff8111156105ee576105ed610a76565b5b60405190808252806020026020018201604052801561062757816020015b610614610845565b81526020019060019003908161060c5790505b5090506000600190505b600054811161083757600160008281526020019081526020016000206040518060e0016040529081600082015481526020016001820160009054906101000a900473ffffffffffffffffffffffffffffffffffffffff1673ffffffffffffffffffffffffffffffffffffffff1673ffffffffffffffffffffffffffffffffffffffff1681526020016002820180546106c890610f52565b80601f01602080910402602001604051908101604052809291908181526020018280546106f490610f52565b80156107415780601f1061071657610100808354040283529160200191610741565b820191906000526020600020905b81548152906001019060200180831161072457829003601f168201915b5050505050815260200160038201805461075a90610f52565b80601f016020809104026020016040519081016040528092919081815260200182805461078690610f52565b80156107d35780601f106107a8576101008083540402835291602001916107d3565b820191906000526020600020905b8154815290600101906020018083116107b657829003601f168201915b5050505050815260200160048201548152602001600582015481526020016006820154815250508260018361080891906112b0565b81518110610819576108186112e4565b5b6020026020010181905250808061082f90611313565b915050610631565b508091505090565b60005481565b6040518060e0016040528060008152602001600073ffffffffffffffffffffffffffffffffffffffff16815260200160608152602001606081526020016000815260200160008152602001600081525090565b6000604051905090565b600080fd5b600080fd5b6000819050919050565b6108bf816108ac565b81146108ca57600080fd5b50565b6000813590506108dc816108b6565b92915050565b6000602082840312156108f8576108f76108a2565b5b6000610906848285016108cd565b91505092915050565b610918816108ac565b82525050565b600073ffffffffffffffffffffffffffffffffffffffff82169050919050565b60006109498261091e565b9050919050565b6109598161093e565b82525050565b600081519050919050565b600082825260208201905092915050565b60005b8381101561099957808201518184015260208101905061097e565b60008484015250505050565b6000601f19601f8301169050919050565b60006109c18261095f565b6109cb818561096a565b93506109db81856020860161097b565b6109e4816109a5565b840191505092915050565b600060e082019050610a04600083018a61090f565b610a116020830189610950565b8181036040830152610a2381886109b6565b90508181036060830152610a3781876109b6565b9050610a46608083018661090f565b610a5360a083018561090f565b610a6060c083018461090f565b98975050505050505050565b600080fd5b600080fd5b7f4e487b7100000000000000000000000000000000000000000000000000000000600052604160045260246000fd5b610aae826109a5565b810181811067ffffffffffffffff82111715610acd57610acc610a76565b5b80604052505050565b6000610ae0610898565b9050610aec8282610aa5565b919050565b600067ffffffffffffffff821115610b0c57610b0b610a76565b5b610b15826109a5565b9050602081019050919050565b82818337600083830152505050565b6000610b44610b3f84610af1565b610ad6565b905082815260208101848484011115610b6057610b5f610a71565b5b610b6b848285610b22565b509392505050565b600082601f830112610b8857610b87610a6c565b5b8135610b98848260208601610b31565b91505092915050565b600080600080600060a08688031215610bbd57610bbc6108a2565b5b600086013567ffffffffffffffff811115610bdb57610bda6108a7565b5b610be788828901610b73565b955050602086013567ffffffffffffffff811115610c0857610c076108a7565b5b610c1488828901610b73565b9450506040610c25888289016108cd565b9350506060610c36888289016108cd565b9250506080610c47888289016108cd565b9150509295509295909350565b610c5d816108ac565b82525050565b610c6c8161093e565b82525050565b600082825260208201905092915050565b6000610c8e8261095f565b610c988185610c72565b9350610ca881856020860161097b565b610cb1816109a5565b840191505092915050565b600060e083016000830151610cd46000860182610c54565b506020830151610ce76020860182610c63565b5060408301518482036040860152610cff8282610c83565b91505060608301518482036060860152610d198282610c83565b9150506080830151610d2e6080860182610c54565b5060a0830151610d4160a0860182610c54565b5060c0830151610d5460c0860182610c54565b508091505092915050565b60006020820190508181036000830152610d798184610cbc565b905092915050565b600081519050919050565b600082825260208201905092915050565b6000819050602082019050919050565b600060e083016000830151610dc56000860182610c54565b506020830151610dd86020860182610c63565b5060408301518482036040860152610df08282610c83565b91505060608301518482036060860152610e0a8282610c83565b9150506080830151610e1f6080860182610c54565b5060a0830151610e3260a0860182610c54565b5060c0830151610e4560c0860182610c54565b508091505092915050565b6000610e5c8383610dad565b905092915050565b6000602082019050919050565b6000610e7c82610d81565b610e868185610d8c565b935083602082028501610e9885610d9d565b8060005b85811015610ed45784840389528151610eb58582610e50565b9450610ec083610e64565b925060208a01995050600181019050610e9c565b50829750879550505050505092915050565b60006020820190508181036000830152610f008184610e71565b905092915050565b6000602082019050610f1d600083018461090f565b92915050565b7f4e487b7100000000000000000000000000000000000000000000000000000000600052602260045260246000fd5b60006002820490506001821680610f6a57607f821691505b602082108103610f7d57610f7c610f23565b5b50919050565b7f4e487b7100000000000000000000000000000000000000000000000000000000600052601160045260246000fd5b6000610fbd826108ac565b9150610fc8836108ac565b9250828201905080821115610fe057610fdf610f83565b5b92915050565b60008190508160005260206000209050919050565b60006020601f8301049050919050565b600082821b905092915050565b6000600883026110487fffffffffffffffffffffffffffffffffffffffffffffffffffffffffffffffff8261100b565b611052868361100b565b95508019841693508086168417925050509392505050565b6000819050919050565b600061108f61108a611085846108ac565b61106a565b6108ac565b9050919050565b6000819050919050565b6110a983611074565b6110bd6110b582611096565b848454611018565b825550505050565b600090565b6110d26110c5565b6110dd8184846110a0565b505050565b5b81811015611101576110f66000826110ca565b6001810190506110e3565b5050565b601f8211156111465761111781610fe6565b61112084610ffb565b8101602085101561112f578190505b61114361113b85610ffb565b8301826110e2565b50505b505050565b600082821c905092915050565b60006111696000198460080261114b565b1980831691505092915050565b60006111828383611158565b9150826002028217905092915050565b61119b8261095f565b67ffffffffffffffff8111156111b4576111b3610a76565b5b6111be8254610f52565b6111c9828285611105565b600060209050601f8311600181146111fc57600084156111ea578287015190505b6111f48582611176565b86555061125c565b601f19841661120a86610fe6565b60005b828110156112325784890151825560018201915060208501945060208101905061120d565b8683101561124f578489015161124b601f891682611158565b8355505b6001600288020188555050505b505050505050565b6000608082019050818103600083015261127e81876109b6565b905061128d602083018661090f565b61129a604083018561090f565b6112a7606083018461090f565b95945050505050565b60006112bb826108ac565b91506112c6836108ac565b92508282039050818111156112de576112dd610f83565b5b92915050565b7f4e487b7100000000000000000000000000000000000000000000000000000000600052603260045260246000fd5b600061131e826108ac565b91507fffffffffffffffffffffffffffffffffffffffffffffffffffffffffffffffff82036113505761134f610f83565b5b60018201905091905056fea2646970667358221220be1bebe740f180e37345336988fcb11689682bff0ab9f6bbd66bfaf6c173af3064736f6c634300081a0033",
  "linkReferences": {},
  "deployedLinkReferences": {}
}