{
  "_format": "hh-sol-artifact-1",
  "contractName": "FunditContract",
  "sourceName": "contracts/FunditContract.sol",
  "abi": [
    {
      "inputs": [
        {
          "internalType": "address",
          "name": "bidContractAddress",
          "type": "address"
        }
      ],
      "stateMutability": "nonpayable",
      "type": "constructor"
    },
    {
      "anonymous": false,
      "inputs": [
        {
          "indexed": true,
          "internalType": "uint256",
          "name": "contractId",
          "type": "uint256"
        },
        {
          "indexed": true,
          "internalType": "uint256",
          "name": "proposalId",
          "type": "uint256"
        },
        {
          "indexed": true,
          "internalType": "uint256",
          "name": "bidId",
          "type": "uint256"
        },
        {
          "indexed": false,
          "internalType": "address",
          "name": "user",
          "type": "address"
        },
        {
          "indexed": false,
          "internalType": "address",
          "name": "company",
          "type": "address"
        },
        {
          "indexed": false,
          "internalType": "uint256",
          "name": "startTime",
          "type": "uint256"
        },
        {
          "indexed": false,
          "internalType": "uint256",
          "name": "endTime",
          "type": "uint256"
        }
      ],
      "name": "ContractConfirmed",
      "type": "event"
    },
    {
      "inputs": [],
      "name": "bidContract",
      "outputs": [
        {
          "internalType": "contract IFunditBid",
          "name": "",
          "type": "address"
        }
      ],
      "stateMutability": "view",
      "type": "function"
    },
    {
      "inputs": [
        {
          "internalType": "uint256",
          "name": "contractId",
          "type": "uint256"
        }
      ],
      "name": "cancelContract",
      "outputs": [],
      "stateMutability": "nonpayable",
      "type": "function"
    },
    {
      "inputs": [
        {
          "internalType": "uint256",
          "name": "contractId",
          "type": "uint256"
        }
      ],
      "name": "completeContract",
      "outputs": [],
      "stateMutability": "nonpayable",
      "type": "function"
    },
    {
      "inputs": [
        {
          "internalType": "uint256",
          "name": "bidId",
          "type": "uint256"
        },
        {
          "internalType": "uint256",
          "name": "duration",
          "type": "uint256"
        }
      ],
      "name": "confirmContractIfPopular",
      "outputs": [],
      "stateMutability": "nonpayable",
      "type": "function"
    },
    {
      "inputs": [],
      "name": "contractCount",
      "outputs": [
        {
          "internalType": "uint256",
          "name": "",
          "type": "uint256"
        }
      ],
      "stateMutability": "view",
      "type": "function"
    },
    {
      "inputs": [
        {
          "internalType": "uint256",
          "name": "",
          "type": "uint256"
        }
      ],
      "name": "contracts",
      "outputs": [
        {
          "internalType": "uint256",
          "name": "id",
          "type": "uint256"
        },
        {
          "internalType": "uint256",
          "name": "proposalId",
          "type": "uint256"
        },
        {
          "internalType": "uint256",
          "name": "bidId",
          "type": "uint256"
        },
        {
          "internalType": "address",
          "name": "user",
          "type": "address"
        },
        {
          "internalType": "address",
          "name": "company",
          "type": "address"
        },
        {
          "internalType": "uint256",
          "name": "coverageAmount",
          "type": "uint256"
        },
        {
          "internalType": "uint256",
          "name": "premiumAmount",
          "type": "uint256"
        },
        {
          "internalType": "uint256",
          "name": "startTime",
          "type": "uint256"
        },
        {
          "internalType": "uint256",
          "name": "endTime",
          "type": "uint256"
        },
        {
          "internalType": "enum FunditContract.ContractStatus",
          "name": "status",
          "type": "uint8"
        }
      ],
      "stateMutability": "view",
      "type": "function"
    },
    {
      "inputs": [
        {
          "internalType": "address",
          "name": "",
          "type": "address"
        },
        {
          "internalType": "uint256",
          "name": "",
          "type": "uint256"
        }
      ],
      "name": "contractsByCompany",
      "outputs": [
        {
          "internalType": "uint256",
          "name": "",
          "type": "uint256"
        }
      ],
      "stateMutability": "view",
      "type": "function"
    },
    {
      "inputs": [
        {
          "internalType": "address",
          "name": "",
          "type": "address"
        },
        {
          "internalType": "uint256",
          "name": "",
          "type": "uint256"
        }
      ],
      "name": "contractsByUser",
      "outputs": [
        {
          "internalType": "uint256",
          "name": "",
          "type": "uint256"
        }
      ],
      "stateMutability": "view",
      "type": "function"
    },
    {
      "inputs": [
        {
          "internalType": "uint256",
          "name": "contractId",
          "type": "uint256"
        }
      ],
      "name": "getContract",
      "outputs": [
        {
          "components": [
            {
              "internalType": "uint256",
              "name": "id",
              "type": "uint256"
            },
            {
              "internalType": "uint256",
              "name": "proposalId",
              "type": "uint256"
            },
            {
              "internalType": "uint256",
              "name": "bidId",
              "type": "uint256"
            },
            {
              "internalType": "address",
              "name": "user",
              "type": "address"
            },
            {
              "internalType": "address",
              "name": "company",
              "type": "address"
            },
            {
              "internalType": "uint256",
              "name": "coverageAmount",
              "type": "uint256"
            },
            {
              "internalType": "uint256",
              "name": "premiumAmount",
              "type": "uint256"
            },
            {
              "internalType": "uint256",
              "name": "startTime",
              "type": "uint256"
            },
            {
              "internalType": "uint256",
              "name": "endTime",
              "type": "uint256"
            },
            {
              "internalType": "enum FunditContract.ContractStatus",
              "name": "status",
              "type": "uint8"
            }
          ],
          "internalType": "struct FunditContract.InsuranceContract",
          "name": "",
          "type": "tuple"
        }
      ],
      "stateMutability": "view",
      "type": "function"
    },
    {
      "inputs": [
        {
          "internalType": "address",
          "name": "company",
          "type": "address"
        }
      ],
      "name": "getContractsByCompany",
      "outputs": [
        {
          "components": [
            {
              "internalType": "uint256",
              "name": "id",
              "type": "uint256"
            },
            {
              "internalType": "uint256",
              "name": "proposalId",
              "type": "uint256"
            },
            {
              "internalType": "uint256",
              "name": "bidId",
              "type": "uint256"
            },
            {
              "internalType": "address",
              "name": "user",
              "type": "address"
            },
            {
              "internalType": "address",
              "name": "company",
              "type": "address"
            },
            {
              "internalType": "uint256",
              "name": "coverageAmount",
              "type": "uint256"
            },
            {
              "internalType": "uint256",
              "name": "premiumAmount",
              "type": "uint256"
            },
            {
              "internalType": "uint256",
              "name": "startTime",
              "type": "uint256"
            },
            {
              "internalType": "uint256",
              "name": "endTime",
              "type": "uint256"
            },
            {
              "internalType": "enum FunditContract.ContractStatus",
              "name": "status",
              "type": "uint8"
            }
          ],
          "internalType": "struct FunditContract.InsuranceContract[]",
          "name": "",
          "type": "tuple[]"
        }
      ],
      "stateMutability": "view",
      "type": "function"
    },
    {
      "inputs": [
        {
          "internalType": "address",
          "name": "user",
          "type": "address"
        }
      ],
      "name": "getContractsByUser",
      "outputs": [
        {
          "components": [
            {
              "internalType": "uint256",
              "name": "id",
              "type": "uint256"
            },
            {
              "internalType": "uint256",
              "name": "proposalId",
              "type": "uint256"
            },
            {
              "internalType": "uint256",
              "name": "bidId",
              "type": "uint256"
            },
            {
              "internalType": "address",
              "name": "user",
              "type": "address"
            },
            {
              "internalType": "address",
              "name": "company",
              "type": "address"
            },
            {
              "internalType": "uint256",
              "name": "coverageAmount",
              "type": "uint256"
            },
            {
              "internalType": "uint256",
              "name": "premiumAmount",
              "type": "uint256"
            },
            {
              "internalType": "uint256",
              "name": "startTime",
              "type": "uint256"
            },
            {
              "internalType": "uint256",
              "name": "endTime",
              "type": "uint256"
            },
            {
              "internalType": "enum FunditContract.ContractStatus",
              "name": "status",
              "type": "uint8"
            }
          ],
          "internalType": "struct FunditContract.InsuranceContract[]",
          "name": "",
          "type": "tuple[]"
        }
      ],
      "stateMutability": "view",
      "type": "function"
    },
    {
      "inputs": [
        {
          "internalType": "address",
          "name": "",
          "type": "address"
        },
        {
          "internalType": "uint256",
          "name": "",
          "type": "uint256"
        }
      ],
      "name": "hasJoined",
      "outputs": [
        {
          "internalType": "bool",
          "name": "",
          "type": "bool"
        }
      ],
      "stateMutability": "view",
      "type": "function"
    },
    {
      "inputs": [],
      "name": "voteThreshold",
      "outputs": [
        {
          "internalType": "uint256",
          "name": "",
          "type": "uint256"
        }
      ],
      "stateMutability": "view",
      "type": "function"
    }
  ],
  "bytecode": "0x6080604052600a60025534801561001557600080fd5b50604051611d15380380611d15833981810160405281019061003791906100e1565b80600160006101000a81548173ffffffffffffffffffffffffffffffffffffffff021916908373ffffffffffffffffffffffffffffffffffffffff1602179055505061010e565b600080fd5b600073ffffffffffffffffffffffffffffffffffffffff82169050919050565b60006100ae82610083565b9050919050565b6100be816100a3565b81146100c957600080fd5b50565b6000815190506100db816100b5565b92915050565b6000602082840312156100f7576100f661007e565b5b6000610105848285016100cc565b91505092915050565b611bf88061011d6000396000f3fe608060405234801561001057600080fd5b50600436106100cf5760003560e01c806358ee94cd1161008c578063a9d0ddf411610066578063a9d0ddf414610241578063b6f50f9b14610271578063d54e255e146102a1578063f9f5d947146102bf576100cf565b806358ee94cd146101d75780636ebc8c86146101f35780638736381a14610223576100cf565b806328047450146100d4578063474da79a146100f05780634eca495f146101295780634fe437d5146101595780635797047c1461017757806358648588146101a7575b600080fd5b6100ee60048036038101906100e9919061129c565b6102db565b005b61010a6004803603810190610105919061129c565b61039b565b6040516101209a99989796959493929190611390565b60405180910390f35b610143600480360381019061013e9190611458565b61043c565b604051610150919061162e565b60405180910390f35b6101616106d1565b60405161016e9190611650565b60405180910390f35b610191600480360381019061018c919061166b565b6106d7565b60405161019e9190611650565b60405180910390f35b6101c160048036038101906101bc919061166b565b610708565b6040516101ce9190611650565b60405180910390f35b6101f160048036038101906101ec919061129c565b610739565b005b61020d6004803603810190610208919061129c565b6107f9565b60405161021a9190611777565b60405180910390f35b61022b610954565b6040516102389190611650565b60405180910390f35b61025b6004803603810190610256919061166b565b61095a565b60405161026891906117ae565b60405180910390f35b61028b60048036038101906102869190611458565b610989565b604051610298919061162e565b60405180910390f35b6102a9610c1e565b6040516102b69190611828565b60405180910390f35b6102d960048036038101906102d49190611843565b610c44565b005b60006003600083815260200190815260200160002090506000600281111561030657610305611319565b5b8160090160009054906101000a900460ff16600281111561032a57610329611319565b5b1461036a576040517f08c379a0000000000000000000000000000000000000000000000000000000008152600401610361906118e0565b60405180910390fd5b60028160090160006101000a81548160ff0219169083600281111561039257610391611319565b5b02179055505050565b60036020528060005260406000206000915090508060000154908060010154908060020154908060030160009054906101000a900473ffffffffffffffffffffffffffffffffffffffff16908060040160009054906101000a900473ffffffffffffffffffffffffffffffffffffffff16908060050154908060060154908060070154908060080154908060090160009054906101000a900460ff1690508a565b60606000600460008473ffffffffffffffffffffffffffffffffffffffff1673ffffffffffffffffffffffffffffffffffffffff1681526020019081526020016000208054806020026020016040519081016040528092919081815260200182805480156104c957602002820191906000526020600020905b8154815260200190600101908083116104b5575b505050505090506000815167ffffffffffffffff8111156104ed576104ec611900565b5b60405190808252806020026020018201604052801561052657816020015b6105136111d0565b81526020019060019003908161050b5790505b50905060005b82518110156106c6576003600084838151811061054c5761054b61192f565b5b60200260200101518152602001908152602001600020604051806101400160405290816000820154815260200160018201548152602001600282015481526020016003820160009054906101000a900473ffffffffffffffffffffffffffffffffffffffff1673ffffffffffffffffffffffffffffffffffffffff1673ffffffffffffffffffffffffffffffffffffffff1681526020016004820160009054906101000a900473ffffffffffffffffffffffffffffffffffffffff1673ffffffffffffffffffffffffffffffffffffffff1673ffffffffffffffffffffffffffffffffffffffff168152602001600582015481526020016006820154815260200160078201548152602001600882015481526020016009820160009054906101000a900460ff16600281111561068557610684611319565b5b600281111561069757610696611319565b5b815250508282815181106106ae576106ad61192f565b5b6020026020010181905250808060010191505061052c565b508092505050919050565b60025481565b600560205281600052604060002081815481106106f357600080fd5b90600052602060002001600091509150505481565b6004602052816000526040600020818154811061072457600080fd5b90600052602060002001600091509150505481565b60006003600083815260200190815260200160002090506000600281111561076457610763611319565b5b8160090160009054906101000a900460ff16600281111561078857610787611319565b5b146107c8576040517f08c379a00000000000000000000000000000000000000000000000000000000081526004016107bf906118e0565b60405180910390fd5b60018160090160006101000a81548160ff021916908360028111156107f0576107ef611319565b5b02179055505050565b6108016111d0565b60036000838152602001908152602001600020604051806101400160405290816000820154815260200160018201548152602001600282015481526020016003820160009054906101000a900473ffffffffffffffffffffffffffffffffffffffff1673ffffffffffffffffffffffffffffffffffffffff1673ffffffffffffffffffffffffffffffffffffffff1681526020016004820160009054906101000a900473ffffffffffffffffffffffffffffffffffffffff1673ffffffffffffffffffffffffffffffffffffffff1673ffffffffffffffffffffffffffffffffffffffff168152602001600582015481526020016006820154815260200160078201548152602001600882015481526020016009820160009054906101000a900460ff16600281111561093757610936611319565b5b600281111561094957610948611319565b5b815250509050919050565b60005481565b60066020528160005260406000206020528060005260406000206000915091509054906101000a900460ff1681565b60606000600560008473ffffffffffffffffffffffffffffffffffffffff1673ffffffffffffffffffffffffffffffffffffffff168152602001908152602001600020805480602002602001604051908101604052809291908181526020018280548015610a1657602002820191906000526020600020905b815481526020019060010190808311610a02575b505050505090506000815167ffffffffffffffff811115610a3a57610a39611900565b5b604051908082528060200260200182016040528015610a7357816020015b610a606111d0565b815260200190600190039081610a585790505b50905060005b8251811015610c135760036000848381518110610a9957610a9861192f565b5b60200260200101518152602001908152602001600020604051806101400160405290816000820154815260200160018201548152602001600282015481526020016003820160009054906101000a900473ffffffffffffffffffffffffffffffffffffffff1673ffffffffffffffffffffffffffffffffffffffff1673ffffffffffffffffffffffffffffffffffffffff1681526020016004820160009054906101000a900473ffffffffffffffffffffffffffffffffffffffff1673ffffffffffffffffffffffffffffffffffffffff1673ffffffffffffffffffffffffffffffffffffffff168152602001600582015481526020016006820154815260200160078201548152602001600882015481526020016009820160009054906101000a900460ff166002811115610bd257610bd1611319565b5b6002811115610be457610be3611319565b5b81525050828281518110610bfb57610bfa61192f565b5b60200260200101819052508080600101915050610a79565b508092505050919050565b600160009054906101000a900473ffffffffffffffffffffffffffffffffffffffff1681565b600660003373ffffffffffffffffffffffffffffffffffffffff1673ffffffffffffffffffffffffffffffffffffffff168152602001908152602001600020600083815260200190815260200160002060009054906101000a900460ff1615610ce2576040517f08c379a0000000000000000000000000000000000000000000000000000000008152600401610cd9906119aa565b60405180910390fd5b6000600160009054906101000a900473ffffffffffffffffffffffffffffffffffffffff1673ffffffffffffffffffffffffffffffffffffffff1663c62bffda846040518263ffffffff1660e01b8152600401610d3f9190611650565b602060405180830381865afa158015610d5c573d6000803e3d6000fd5b505050506040513d601f19601f82011682018060405250810190610d8091906119df565b9050600254811015610dc7576040517f08c379a0000000000000000000000000000000000000000000000000000000008152600401610dbe90611a58565b60405180910390fd5b600080600080600160009054906101000a900473ffffffffffffffffffffffffffffffffffffffff1673ffffffffffffffffffffffffffffffffffffffff16633c889e6f886040518263ffffffff1660e01b8152600401610e289190611650565b60c060405180830381865afa158015610e45573d6000803e3d6000fd5b505050506040513d601f19601f82011682018060405250810190610e699190611a8d565b509450945094509450506001600080828254610e859190611b49565b92505081905550600060405180610140016040528060005481526020018681526020018981526020013373ffffffffffffffffffffffffffffffffffffffff1681526020018573ffffffffffffffffffffffffffffffffffffffff1681526020018481526020018381526020014281526020018842610f049190611b49565b815260200160006002811115610f1d57610f1c611319565b5b815250905080600360008054815260200190815260200160002060008201518160000155602082015181600101556040820151816002015560608201518160030160006101000a81548173ffffffffffffffffffffffffffffffffffffffff021916908373ffffffffffffffffffffffffffffffffffffffff16021790555060808201518160040160006101000a81548173ffffffffffffffffffffffffffffffffffffffff021916908373ffffffffffffffffffffffffffffffffffffffff16021790555060a0820151816005015560c0820151816006015560e0820151816007015561010082015181600801556101208201518160090160006101000a81548160ff0219169083600281111561103857611037611319565b5b0217905550905050600460003373ffffffffffffffffffffffffffffffffffffffff1673ffffffffffffffffffffffffffffffffffffffff1681526020019081526020016000206000549080600181540180825580915050600190039060005260206000200160009091909190915055600560008573ffffffffffffffffffffffffffffffffffffffff1673ffffffffffffffffffffffffffffffffffffffff16815260200190815260200160002060005490806001815401808255809150506001900390600052602060002001600090919091909150556001600660003373ffffffffffffffffffffffffffffffffffffffff1673ffffffffffffffffffffffffffffffffffffffff16815260200190815260200160002060008a815260200190815260200160002060006101000a81548160ff02191690831515021790555087856000547f226e232425f3fc2d74f25ba3e45e79fe6e2b1d56f61239d2677dd67dc80a37ff3388428d426111ae9190611b49565b6040516111be9493929190611b7d565b60405180910390a45050505050505050565b604051806101400160405280600081526020016000815260200160008152602001600073ffffffffffffffffffffffffffffffffffffffff168152602001600073ffffffffffffffffffffffffffffffffffffffff168152602001600081526020016000815260200160008152602001600081526020016000600281111561125b5761125a611319565b5b81525090565b600080fd5b6000819050919050565b61127981611266565b811461128457600080fd5b50565b60008135905061129681611270565b92915050565b6000602082840312156112b2576112b1611261565b5b60006112c084828501611287565b91505092915050565b6112d281611266565b82525050565b600073ffffffffffffffffffffffffffffffffffffffff82169050919050565b6000611303826112d8565b9050919050565b611313816112f8565b82525050565b7f4e487b7100000000000000000000000000000000000000000000000000000000600052602160045260246000fd5b6003811061135957611358611319565b5b50565b600081905061136a82611348565b919050565b600061137a8261135c565b9050919050565b61138a8161136f565b82525050565b6000610140820190506113a6600083018d6112c9565b6113b3602083018c6112c9565b6113c0604083018b6112c9565b6113cd606083018a61130a565b6113da608083018961130a565b6113e760a08301886112c9565b6113f460c08301876112c9565b61140160e08301866112c9565b61140f6101008301856112c9565b61141d610120830184611381565b9b9a5050505050505050505050565b611435816112f8565b811461144057600080fd5b50565b6000813590506114528161142c565b92915050565b60006020828403121561146e5761146d611261565b5b600061147c84828501611443565b91505092915050565b600081519050919050565b600082825260208201905092915050565b6000819050602082019050919050565b6114ba81611266565b82525050565b6114c9816112f8565b82525050565b6114d88161136f565b82525050565b610140820160008201516114f560008501826114b1565b50602082015161150860208501826114b1565b50604082015161151b60408501826114b1565b50606082015161152e60608501826114c0565b50608082015161154160808501826114c0565b5060a082015161155460a08501826114b1565b5060c082015161156760c08501826114b1565b5060e082015161157a60e08501826114b1565b5061010082015161158f6101008501826114b1565b506101208201516115a46101208501826114cf565b50505050565b60006115b683836114de565b6101408301905092915050565b6000602082019050919050565b60006115db82611485565b6115e58185611490565b93506115f0836114a1565b8060005b8381101561162157815161160888826115aa565b9750611613836115c3565b9250506001810190506115f4565b5085935050505092915050565b6000602082019050818103600083015261164881846115d0565b905092915050565b600060208201905061166560008301846112c9565b92915050565b6000806040838503121561168257611681611261565b5b600061169085828601611443565b92505060206116a185828601611287565b9150509250929050565b610140820160008201516116c260008501826114b1565b5060208201516116d560208501826114b1565b5060408201516116e860408501826114b1565b5060608201516116fb60608501826114c0565b50608082015161170e60808501826114c0565b5060a082015161172160a08501826114b1565b5060c082015161173460c08501826114b1565b5060e082015161174760e08501826114b1565b5061010082015161175c6101008501826114b1565b506101208201516117716101208501826114cf565b50505050565b60006101408201905061178d60008301846116ab565b92915050565b60008115159050919050565b6117a881611793565b82525050565b60006020820190506117c3600083018461179f565b92915050565b6000819050919050565b60006117ee6117e96117e4846112d8565b6117c9565b6112d8565b9050919050565b6000611800826117d3565b9050919050565b6000611812826117f5565b9050919050565b61182281611807565b82525050565b600060208201905061183d6000830184611819565b92915050565b6000806040838503121561185a57611859611261565b5b600061186885828601611287565b925050602061187985828601611287565b9150509250929050565b600082825260208201905092915050565b7f436f6e7472616374206d75737420626520616374697665000000000000000000600082015250565b60006118ca601783611883565b91506118d582611894565b602082019050919050565b600060208201905081810360008301526118f9816118bd565b9050919050565b7f4e487b7100000000000000000000000000000000000000000000000000000000600052604160045260246000fd5b7f4e487b7100000000000000000000000000000000000000000000000000000000600052603260045260246000fd5b7f416c7265616479206a6f696e6564207468697320626964000000000000000000600082015250565b6000611994601783611883565b915061199f8261195e565b602082019050919050565b600060208201905081810360008301526119c381611987565b9050919050565b6000815190506119d981611270565b92915050565b6000602082840312156119f5576119f4611261565b5b6000611a03848285016119ca565b91505092915050565b7f4e6f7420656e6f75676820766f74657300000000000000000000000000000000600082015250565b6000611a42601083611883565b9150611a4d82611a0c565b602082019050919050565b60006020820190508181036000830152611a7181611a35565b9050919050565b600081519050611a878161142c565b92915050565b60008060008060008060c08789031215611aaa57611aa9611261565b5b6000611ab889828a016119ca565b9650506020611ac989828a016119ca565b9550506040611ada89828a01611a78565b9450506060611aeb89828a016119ca565b9350506080611afc89828a016119ca565b92505060a0611b0d89828a016119ca565b9150509295509295509295565b7f4e487b7100000000000000000000000000000000000000000000000000000000600052601160045260246000fd5b6000611b5482611266565b9150611b5f83611266565b9250828201905080821115611b7757611b76611b1a565b5b92915050565b6000608082019050611b92600083018761130a565b611b9f602083018661130a565b611bac60408301856112c9565b611bb960608301846112c9565b9594505050505056fea26469706673582212206d377b65653522ae9f4f5c2c3ed97b831658108d03a0bdece0cafe6204fd009364736f6c634300081a0033",
  "linkReferences": {},
  "deployedLinkReferences": {}
}