{
  "_format": "hh-sol-artifact-1",
  "contractName": "FunditProposal",
  "sourceName": "contracts/FunditProposal.sol",
  "abi": [
    {
      "anonymous": false,
      "inputs": [
        {
          "indexed": true,
          "internalType": "uint256",
          "name": "id",
          "type": "uint256"
        },
        {
          "indexed": false,
          "internalType": "uint256",
          "name": "closedAt",
          "type": "uint256"
        }
      ],
      "name": "ProposalClosed",
      "type": "event"
    },
    {
      "anonymous": false,
      "inputs": [
        {
          "indexed": true,
          "internalType": "uint256",
          "name": "id",
          "type": "uint256"
        },
        {
          "indexed": true,
          "internalType": "address",
          "name": "proposer",
          "type": "address"
        },
        {
          "indexed": false,
          "internalType": "string",
          "name": "title",
          "type": "string"
        },
        {
          "indexed": false,
          "internalType": "uint256",
          "name": "coverageAmount",
          "type": "uint256"
        },
        {
          "indexed": false,
          "internalType": "uint256",
          "name": "premium",
          "type": "uint256"
        },
        {
          "indexed": false,
          "internalType": "uint256",
          "name": "deadline",
          "type": "uint256"
        }
      ],
      "name": "ProposalCreated",
      "type": "event"
    },
    {
      "inputs": [
        {
          "internalType": "uint256",
          "name": "_id",
          "type": "uint256"
        }
      ],
      "name": "closeProposal",
      "outputs": [],
      "stateMutability": "nonpayable",
      "type": "function"
    },
    {
      "inputs": [
        {
          "internalType": "string",
          "name": "_title",
          "type": "string"
        },
        {
          "internalType": "string",
          "name": "_description",
          "type": "string"
        },
        {
          "internalType": "uint256",
          "name": "_coverageAmount",
          "type": "uint256"
        },
        {
          "internalType": "uint256",
          "name": "_premium",
          "type": "uint256"
        },
        {
          "internalType": "uint256",
          "name": "_deadline",
          "type": "uint256"
        }
      ],
      "name": "createProposal",
      "outputs": [],
      "stateMutability": "nonpayable",
      "type": "function"
    },
    {
      "inputs": [],
      "name": "getAllProposals",
      "outputs": [
        {
          "components": [
            {
              "internalType": "uint256",
              "name": "id",
              "type": "uint256"
            },
            {
              "internalType": "address",
              "name": "proposer",
              "type": "address"
            },
            {
              "internalType": "string",
              "name": "title",
              "type": "string"
            },
            {
              "internalType": "string",
              "name": "description",
              "type": "string"
            },
            {
              "internalType": "uint256",
              "name": "coverageAmount",
              "type": "uint256"
            },
            {
              "internalType": "uint256",
              "name": "premium",
              "type": "uint256"
            },
            {
              "internalType": "uint256",
              "name": "deadline",
              "type": "uint256"
            }
          ],
          "internalType": "struct FunditProposal.Proposal[]",
          "name": "",
          "type": "tuple[]"
        }
      ],
      "stateMutability": "view",
      "type": "function"
    },
    {
      "inputs": [
        {
          "internalType": "uint256",
          "name": "_id",
          "type": "uint256"
        }
      ],
      "name": "getProposal",
      "outputs": [
        {
          "components": [
            {
              "internalType": "uint256",
              "name": "id",
              "type": "uint256"
            },
            {
              "internalType": "address",
              "name": "proposer",
              "type": "address"
            },
            {
              "internalType": "string",
              "name": "title",
              "type": "string"
            },
            {
              "internalType": "string",
              "name": "description",
              "type": "string"
            },
            {
              "internalType": "uint256",
              "name": "coverageAmount",
              "type": "uint256"
            },
            {
              "internalType": "uint256",
              "name": "premium",
              "type": "uint256"
            },
            {
              "internalType": "uint256",
              "name": "deadline",
              "type": "uint256"
            }
          ],
          "internalType": "struct FunditProposal.Proposal",
          "name": "",
          "type": "tuple"
        }
      ],
      "stateMutability": "view",
      "type": "function"
    },
    {
      "inputs": [],
      "name": "proposalCount",
      "outputs": [
        {
          "internalType": "uint256",
          "name": "",
          "type": "uint256"
        }
      ],
      "stateMutability": "view",
      "type": "function"
    },
    {
      "inputs": [
        {
          "internalType": "uint256",
          "name": "",
          "type": "uint256"
        }
      ],
      "name": "proposals",
      "outputs": [
        {
          "internalType": "uint256",
          "name": "id",
          "type": "uint256"
        },
        {
          "internalType": "address",
          "name": "proposer",
          "type": "address"
        },
        {
          "internalType": "string",
          "name": "title",
          "type": "string"
        },
        {
          "internalType": "string",
          "name": "description",
          "type": "string"
        },
        {
          "internalType": "uint256",
          "name": "coverageAmount",
          "type": "uint256"
        },
        {
          "internalType": "uint256",
          "name": "premium",
          "type": "uint256"
        },
        {
          "internalType": "uint256",
          "name": "deadline",
          "type": "uint256"
        }
      ],
      "stateMutability": "view",
      "type": "function"
    }
  ],
  "bytecode": "0x6080604052348015600f57600080fd5b506115c48061001f6000396000f3fe608060405234801561001057600080fd5b50600436106100625760003560e01c8063013cf08b146100675780630386a0161461009d57806333423c06146100b9578063c7f758a8146100d5578063cceb68f514610105578063da35c66414610123575b600080fd5b610081600480360381019061007c9190610a3d565b610141565b6040516100949796959493929190610b4a565b60405180910390f35b6100b760048036038101906100b29190610a3d565b6102b3565b005b6100d360048036038101906100ce9190610cfc565b6103e7565b005b6100ef60048036038101906100ea9190610a3d565b61055b565b6040516100fc9190610eba565b60405180910390f35b61010d61072a565b60405161011a9190611041565b60405180910390f35b61012b61099a565b6040516101389190611063565b60405180910390f35b60016020528060005260406000206000915090508060000154908060010160009054906101000a900473ffffffffffffffffffffffffffffffffffffffff1690806002018054610190906110ad565b80601f01602080910402602001604051908101604052809291908181526020018280546101bc906110ad565b80156102095780601f106101de57610100808354040283529160200191610209565b820191906000526020600020905b8154815290600101906020018083116101ec57829003601f168201915b50505050509080600301805461021e906110ad565b80601f016020809104026020016040519081016040528092919081815260200182805461024a906110ad565b80156102975780601f1061026c57610100808354040283529160200191610297565b820191906000526020600020905b81548152906001019060200180831161027a57829003601f168201915b5050505050908060040154908060050154908060060154905087565b60006001600083815260200190815260200160002090508060010160009054906101000a900473ffffffffffffffffffffffffffffffffffffffff1673ffffffffffffffffffffffffffffffffffffffff163373ffffffffffffffffffffffffffffffffffffffff161461035c576040517f08c379a00000000000000000000000000000000000000000000000000000000081526004016103539061112a565b60405180910390fd5b806006015442106103a2576040517f08c379a000000000000000000000000000000000000000000000000000000000815260040161039990611196565b60405180910390fd5b428160060181905550817fbc54f85bee74832b80104d1b6d31c68eb8065057063a1d23f8ed7ce44a47f302426040516103db9190611063565b60405180910390a25050565b60016000808282546103f991906111e5565b925050819055506040518060e0016040528060005481526020013373ffffffffffffffffffffffffffffffffffffffff1681526020018681526020018581526020018481526020018381526020018281525060016000805481526020019081526020016000206000820151816000015560208201518160010160006101000a81548173ffffffffffffffffffffffffffffffffffffffff021916908373ffffffffffffffffffffffffffffffffffffffff16021790555060408201518160020190816104c591906113c5565b5060608201518160030190816104db91906113c5565b506080820151816004015560a0820151816005015560c082015181600601559050503373ffffffffffffffffffffffffffffffffffffffff166000547f6b04e3d11c426737470e9f5cdd847185e72cb1b770b7b6781c49838732a9011e8786868660405161054c9493929190611497565b60405180910390a35050505050565b6105636109a0565b600160008381526020019081526020016000206040518060e0016040529081600082015481526020016001820160009054906101000a900473ffffffffffffffffffffffffffffffffffffffff1673ffffffffffffffffffffffffffffffffffffffff1673ffffffffffffffffffffffffffffffffffffffff1681526020016002820180546105f1906110ad565b80601f016020809104026020016040519081016040528092919081815260200182805461061d906110ad565b801561066a5780601f1061063f5761010080835404028352916020019161066a565b820191906000526020600020905b81548152906001019060200180831161064d57829003601f168201915b50505050508152602001600382018054610683906110ad565b80601f01602080910402602001604051908101604052809291908181526020018280546106af906110ad565b80156106fc5780601f106106d1576101008083540402835291602001916106fc565b820191906000526020600020905b8154815290600101906020018083116106df57829003601f168201915b5050505050815260200160048201548152602001600582015481526020016006820154815250509050919050565b60606000805467ffffffffffffffff81111561074957610748610bd1565b5b60405190808252806020026020018201604052801561078257816020015b61076f6109a0565b8152602001906001900390816107675790505b5090506000600190505b600054811161099257600160008281526020019081526020016000206040518060e0016040529081600082015481526020016001820160009054906101000a900473ffffffffffffffffffffffffffffffffffffffff1673ffffffffffffffffffffffffffffffffffffffff1673ffffffffffffffffffffffffffffffffffffffff168152602001600282018054610823906110ad565b80601f016020809104026020016040519081016040528092919081815260200182805461084f906110ad565b801561089c5780601f106108715761010080835404028352916020019161089c565b820191906000526020600020905b81548152906001019060200180831161087f57829003601f168201915b505050505081526020016003820180546108b5906110ad565b80601f01602080910402602001604051908101604052809291908181526020018280546108e1906110ad565b801561092e5780601f106109035761010080835404028352916020019161092e565b820191906000526020600020905b81548152906001019060200180831161091157829003601f168201915b5050505050815260200160048201548152602001600582015481526020016006820154815250508260018361096391906114e3565b8151811061097457610973611517565b5b6020026020010181905250808061098a90611546565b91505061078c565b508091505090565b60005481565b6040518060e0016040528060008152602001600073ffffffffffffffffffffffffffffffffffffffff16815260200160608152602001606081526020016000815260200160008152602001600081525090565b6000604051905090565b600080fd5b600080fd5b6000819050919050565b610a1a81610a07565b8114610a2557600080fd5b50565b600081359050610a3781610a11565b92915050565b600060208284031215610a5357610a526109fd565b5b6000610a6184828501610a28565b91505092915050565b610a7381610a07565b82525050565b600073ffffffffffffffffffffffffffffffffffffffff82169050919050565b6000610aa482610a79565b9050919050565b610ab481610a99565b82525050565b600081519050919050565b600082825260208201905092915050565b60005b83811015610af4578082015181840152602081019050610ad9565b60008484015250505050565b6000601f19601f8301169050919050565b6000610b1c82610aba565b610b268185610ac5565b9350610b36818560208601610ad6565b610b3f81610b00565b840191505092915050565b600060e082019050610b5f600083018a610a6a565b610b6c6020830189610aab565b8181036040830152610b7e8188610b11565b90508181036060830152610b928187610b11565b9050610ba16080830186610a6a565b610bae60a0830185610a6a565b610bbb60c0830184610a6a565b98975050505050505050565b600080fd5b600080fd5b7f4e487b7100000000000000000000000000000000000000000000000000000000600052604160045260246000fd5b610c0982610b00565b810181811067ffffffffffffffff82111715610c2857610c27610bd1565b5b80604052505050565b6000610c3b6109f3565b9050610c478282610c00565b919050565b600067ffffffffffffffff821115610c6757610c66610bd1565b5b610c7082610b00565b9050602081019050919050565b82818337600083830152505050565b6000610c9f610c9a84610c4c565b610c31565b905082815260208101848484011115610cbb57610cba610bcc565b5b610cc6848285610c7d565b509392505050565b600082601f830112610ce357610ce2610bc7565b5b8135610cf3848260208601610c8c565b91505092915050565b600080600080600060a08688031215610d1857610d176109fd565b5b600086013567ffffffffffffffff811115610d3657610d35610a02565b5b610d4288828901610cce565b955050602086013567ffffffffffffffff811115610d6357610d62610a02565b5b610d6f88828901610cce565b9450506040610d8088828901610a28565b9350506060610d9188828901610a28565b9250506080610da288828901610a28565b9150509295509295909350565b610db881610a07565b82525050565b610dc781610a99565b82525050565b600082825260208201905092915050565b6000610de982610aba565b610df38185610dcd565b9350610e03818560208601610ad6565b610e0c81610b00565b840191505092915050565b600060e083016000830151610e2f6000860182610daf565b506020830151610e426020860182610dbe565b5060408301518482036040860152610e5a8282610dde565b91505060608301518482036060860152610e748282610dde565b9150506080830151610e896080860182610daf565b5060a0830151610e9c60a0860182610daf565b5060c0830151610eaf60c0860182610daf565b508091505092915050565b60006020820190508181036000830152610ed48184610e17565b905092915050565b600081519050919050565b600082825260208201905092915050565b6000819050602082019050919050565b600060e083016000830151610f206000860182610daf565b506020830151610f336020860182610dbe565b5060408301518482036040860152610f4b8282610dde565b91505060608301518482036060860152610f658282610dde565b9150506080830151610f7a6080860182610daf565b5060a0830151610f8d60a0860182610daf565b5060c0830151610fa060c0860182610daf565b508091505092915050565b6000610fb78383610f08565b905092915050565b6000602082019050919050565b6000610fd782610edc565b610fe18185610ee7565b935083602082028501610ff385610ef8565b8060005b8581101561102f57848403895281516110108582610fab565b945061101b83610fbf565b925060208a01995050600181019050610ff7565b50829750879550505050505092915050565b6000602082019050818103600083015261105b8184610fcc565b905092915050565b60006020820190506110786000830184610a6a565b92915050565b7f4e487b7100000000000000000000000000000000000000000000000000000000600052602260045260246000fd5b600060028204905060018216806110c557607f821691505b6020821081036110d8576110d761107e565b5b50919050565b7f4f6e6c792070726f706f7365722063616e20636c6f7365000000000000000000600082015250565b6000611114601783610ac5565b915061111f826110de565b602082019050919050565b6000602082019050818103600083015261114381611107565b9050919050565b7f416c726561647920636c6f736564000000000000000000000000000000000000600082015250565b6000611180600e83610ac5565b915061118b8261114a565b602082019050919050565b600060208201905081810360008301526111af81611173565b9050919050565b7f4e487b7100000000000000000000000000000000000000000000000000000000600052601160045260246000fd5b60006111f082610a07565b91506111fb83610a07565b9250828201905080821115611213576112126111b6565b5b92915050565b60008190508160005260206000209050919050565b60006020601f8301049050919050565b600082821b905092915050565b60006008830261127b7fffffffffffffffffffffffffffffffffffffffffffffffffffffffffffffffff8261123e565b611285868361123e565b95508019841693508086168417925050509392505050565b6000819050919050565b60006112c26112bd6112b884610a07565b61129d565b610a07565b9050919050565b6000819050919050565b6112dc836112a7565b6112f06112e8826112c9565b84845461124b565b825550505050565b600090565b6113056112f8565b6113108184846112d3565b505050565b5b81811015611334576113296000826112fd565b600181019050611316565b5050565b601f8211156113795761134a81611219565b6113538461122e565b81016020851015611362578190505b61137661136e8561122e565b830182611315565b50505b505050565b600082821c905092915050565b600061139c6000198460080261137e565b1980831691505092915050565b60006113b5838361138b565b9150826002028217905092915050565b6113ce82610aba565b67ffffffffffffffff8111156113e7576113e6610bd1565b5b6113f182546110ad565b6113fc828285611338565b600060209050601f83116001811461142f576000841561141d578287015190505b61142785826113a9565b86555061148f565b601f19841661143d86611219565b60005b8281101561146557848901518255600182019150602085019450602081019050611440565b86831015611482578489015161147e601f89168261138b565b8355505b6001600288020188555050505b505050505050565b600060808201905081810360008301526114b18187610b11565b90506114c06020830186610a6a565b6114cd6040830185610a6a565b6114da6060830184610a6a565b95945050505050565b60006114ee82610a07565b91506114f983610a07565b9250828203905081811115611511576115106111b6565b5b92915050565b7f4e487b7100000000000000000000000000000000000000000000000000000000600052603260045260246000fd5b600061155182610a07565b91507fffffffffffffffffffffffffffffffffffffffffffffffffffffffffffffffff8203611583576115826111b6565b5b60018201905091905056fea2646970667358221220a5f3476b60befb8fe0b5706288c4c8546c8f88d02814e64e990ba6089afad9ad64736f6c634300081a0033",
  "linkReferences": {},
  "deployedLinkReferences": {}
}